:020000040000FA
:060000000A128A110C280F
:10000800FE00030EF1000A08F2000A128A11BA2E45
:100018000A128A110F28F70183120313C801C901B4
:10002800CA01CB01CC01CD01CE01CF01D001D10154
:10003800D201D30183010A128A110E2E83120313EF
:100048002D088039B2003208B7002D08B2003207F7
:10005800B3003308BD00AC1F3228332834283D14C0
:100068003D0803193828392848283D0A031D3D282A
:100078003E2846280030AD000030AC000030AB0010
:100088000030AA00AC1750280030AD000030AC009A
:100098000030AB000030AA0031088039B2003208C5
:1000A800B7063108B2003207B3003308BC00B01FEE
:1000B8005E285F2860283C143C08031964286528DA
:1000C80074283C0A031D69286A2872280030B10088
:1000D8000030B0000030AF000030AE00B0177C2810
:1000E8000030B1000030B0000030AF000030AE008A
:1000F8003C0803198028812886283D08031D852887
:1001080086288F280030AD000030AC000030AB00EE
:100118000030AA00822B2A08B2003208F300300807
:100128000A128A115F260A128A11740883120313AD
:10013800C3007308C2004208B200B301B401B5019C
:100148003508BB003408BA003308B9003208B800D3
:100158004308B200B301B401B5013508C100340841
:10016800C0003308BF003208BE002B08B2003208B6
:10017800F3002F080A128A115F260A128A117408DE
:1001880083120313C3007308C2004208B200B3010C
:10019800B401B5013208B807330803110318013E4A
:1001A8000319D728B907340803110318013E0319A6
:1001B800DE28BA07350803110318013E0319E5289C
:1001C800BB074308B200B301B401B5013208BE074A
:1001D800330803110318013E0319F328BF07340835
:1001E80003110318013E0319FA28C0073508031143
:1001F8000318013E03190129C1072C08B20032086F
:10020800F3002E080A128A115F260A128A1174084E
:1002180083120313C3007308C2004208B200B3017B
:10022800B401B5013208B807330803110318013EB9
:1002380003191F29B907340803110318013E0319CC
:100248002629BA07350803110318013E03192D2979
:10025800BB074308B200B301B401B5013208BE07B9
:10026800330803110318013E03193B29BF0734085B
:1002780003110318013E03194229C0073508031169
:100288000318013E03194929C1070830B2000310B9
:10029800B80DB90DBA0DBB0DB20B4B292B08B20026
:1002A8003208F3002E080A128A115F260A128A11F0
:1002B800740883120313C3007308C2004208B20013
:1002C8004308B300B401B5013208B8073308031175
:1002D8000318013E03197129B907340803110318DB
:1002E800013E03197829BA07350803110318013E9E
:1002F80003197F29BB072A08B2003208F3002F0828
:100308000A128A115F260A128A11740883120313CB
:10031800C3007308C2004208B2004308B300B40126
:10032800B5013208B807330803110318013E031951
:100338009E29B907340803110318013E0319A5299A
:10034800BA07350803110318013E0319AC29BB0786
:100358000830B2000310B80DB90DBA0DBB0DB20BC1
:10036800AE292A08B2003208F3002E080A128A11B0
:100378005F260A128A11740883120313C3007308D4
:10038800C2004208B2004308B300B401B501320804
:10039800B807330803110318013E0319D429B90714
:1003A800340803110318013E0319DB29BA0735087D
:1003B80003110318013E0319E229BB072B08B200F9
:1003C8003208F30030080A128A115F260A128A11CD
:1003D800740883120313C3007308C2004208B200F2
:1003E8004308B300B401B5013208BE07330803114E
:1003F8000318013E0319012ABF0734080311031823
:10040800013E0319082AC007350803110318013EE5
:1004180003190F2AC1072C08B2003208F3002F086D
:100428000A128A115F260A128A11740883120313AA
:10043800C3007308C2004208B2004308B300B40105
:10044800B5013208BE07330803110318013E03192A
:100458002E2ABF07340803110318013E0319352A51
:10046800C007350803110318013E03193C2AC107C8
:100478002C08B2003208F30030080A128A115F26ED
:100488000A128A11740883120313C3007308C20086
:100498004208B2004308B300B401B50108300310A4
:1004A800B20DB30DB40DB50DFF3E031D532A32082E
:1004B800BE07330803110318013E0319642ABF0756
:1004C800340803110318013E03196B2AC0073508C5
:1004D80003110318013E0319722AC1073808B20034
:1004E8003908B3003A08B4003B08B50018300310C7
:1004F800B50CB40CB30CB20CFF3E031D7B2A3208BA
:10050800BE07330803110318013E03198C2ABF07DD
:10051800340803110318013E0319932AC00735084C
:1005280003110318013E03199A2AC1070830B200C3
:100538000310B80DB90DBA0DBB0DB20B9C2A3D08BE
:100548003C07B200B301B30D3208823EC200330843
:100558000318013EFF3EC300CE2A0130B20003104B
:10056800BE0DBF0DC00DC10DB20BB32ABB1FBD2AF6
:10057800BE2ABF2A3E140130B2000310B80DB90DCF
:10058800BA0DBB0DB20BC12AFF30C2070318C30A4C
:10059800FF30C307C01FD12AD22AB12ABC01BB1F12
:1005A800D62AD72AF32AFF303805B200FF3039059A
:1005B800B300FF303A05B4007F303B05B50035087D
:1005C8003404330432040319EA2AEB2AEE2ABC0164
:1005D800BC0AF32A3E1CF12AF22AF32AEB2A3C0829
:1005E8000319F72AF82A292B0130BE07003003180F
:1005F8000130BF07003003180130C007003003186E
:100608000130C107411C092B0A2B292B3E08B200D7
:100618003F08B3004008B4004108B5000130B600F7
:10062800350DB50CB40CB30CB20CB60B142B350845
:10063800C1003408C0003308BF003208BE000130D2
:10064800C2070318C30A0030C3074308803AFF00F3
:1006580080307F02031D322BFF304202031C352BF2
:10066800362B412B7F3083120313C1008030C0002A
:100678000030BF000030BE00762B831203134308FE
:10068800803AFF0080307F02031D4C2B013042026C
:1006980003184F2B502B5C2B003083120313C1001F
:1006A8000030C0000030BF000030BE00B701762B1C
:1006B800831203134208B2003208BD00FF30BE05A2
:1006C800FF30BF057F30C0050030C1053D1C6D2BD4
:1006D8006E2B6F2BC0173D08B2000310320CB3000D
:1006E8003308C1003708B2003208C1044108AD0020
:1006F8004008AC003F08AB003E08AA00080083127F
:100708000313A400240803198A2B8B2B9F2BF61F95
:100718008E2B8F2B9F2B7309A6007409A7007509D0
:10072800A8007609A900A60A0319A70A0319A80AA6
:100738000319A90AA72B7608A9007508A800740848
:10074800A7007308A6007608750474047304031DD3
:10075800AE2BAF2BB82B0030F6000030F500003080
:10076800F4000030F3003E2C9630A0002008A500CD
:10077800CA2B0130A0002008A50701300310A90CDE
:10078800A80CA70CA60CFF3E031DC22BFE302905A2
:10079800031DCF2BD02BBD2BEC2B0130A000200844
:1007A800A5070130A607003003180130A70700305D
:1007B80003180130A807003003180130A9070130D9
:1007C8000310A90CA80CA70CA60CFF3E031DE42BD4
:1007D800FF302905031DF12BF22BD12BFE2B013005
:1007E800A5020130A0000310A60DA70DA80DA90DA4
:1007F800A00BF72BA81B012C022C082C0230250279
:100808000318072C082CF32B25180B2C0C2C142C54
:10081800FF30A605FF30A7057F30A805FF30A905E2
:100828000310A50C2508A000A101A201A3011830FE
:100838000310A00DA10DA20DA30DFF3E031D1C2C3E
:100848002008A6042108A7042208A8042308A9044C
:1008580024080319302C312C362CF61F342C352C57
:10086800362CA9172908F6002808F5002708F400EF
:100878002608F3000800B72C831203139F121F12D7
:100888009F111F11EE2C831203139F121F129F1129
:100898001F15EE2C831203139F121F129F151F1191
:1008A800EE2C831203139F121F129F151F15EE2C97
:1008B800831203139F121F169F111F11EE2C831210
:1008C80003139F121F169F111F15EE2C831203137B
:1008D8009F121F169F151F11EE2C831203139F12D0
:1008E8001F169F151F15EE2C831203139F161F1238
:1008F8009F111F11EE2C831203139F161F129F11B5
:100908001F15EE2C831203139F161F129F151F111C
:10091800EE2C831203139F161F129F151F15EE2C22
:10092800831203139F161F169F111F11EE2C83129B
:1009380003139F161F169F111F15EE2C8312031306
:100948009F161F169F151F11EE2C831203139F1657
:100958001F169F151F15EE2C831203139F121F12CB
:100968009F111F11EE2C7408003A0319BC2CB02CEF
:100978007308003A0319402C013A0319472C033A2B
:1009880003194E2C013A0319552C073A03195C2C0C
:10099800013A0319632C033A03196A2C013A031923
:1009A800712C0F3A0319782C013A03197F2C033A5A
:1009B8000319862C013A03198D2C073A0319942C34
:1009C800013A03199B2C033A0319A22C013A031983
:1009D800A92CB02C08000030831203132005F30063
:1009E80000302105F40080302205F5007F30230512
:1009F800F6007608750474047304031D042D052D90
:100A08000D2D0030A3000030A2000030A1000030FE
:100A1800A00000302405F30000302505F4008030E4
:100A28002605F5007F302705F6007608750474045E
:100A38007304031D202D212D292D0030A70000301F
:100A4800A6000030A5000030A400A31F2C2D2D2DDA
:100A5800512D0030F3000030F4000030F5008030F4
:100A6800F6002008F3022108031C210F3C2D3D2D20
:100A7800F4022208031C220F422D432DF5022308FD
:100A8800031C230F482D492DF6027608A30075088C
:100A9800A2007408A1007308A000A71F542D552DAB
:100AA800792D0030F3000030F4000030F50080307C
:100AB800F6002408F3022508031C250F642D652D74
:100AC800F4022608031C260F6A2D6B2DF502270851
:100AD800031C270F702D712DF6027608A7007508E4
:100AE800A6007408A5007308A4008030A30680300F
:100AF800A70627082302031D8B2D26082202031DA3
:100B08008B2D25082102031D8B2D24082002031894
:100B18008E2D8F2D912D0310922D03140800831212
:100B280003134B08A3004A08A2004908A10048087B
:100B3800A0004130A700C830A6000030A500003052
:100B4800A4000A128A11EF240A128A110318AD2D83
:100B5800AE2DB32D01308312031388000D2E4130C2
:100B680083120313A300C830A2000030A100003094
:100B7800A0004B08A7004A08A6004908A500480895
:100B8800A4000A128A11EF240A128A110318CD2D23
:100B9800CE2DEE2D831203134B08A3004A08A200A2
:100BA8004908A1004808A0004230A7001030A6005C
:100BB8000030A5000030A4000A128A11EF240A129E
:100BC8008A110318E82DE92DEE2D02308312031344
:100BD80088000D2E423083120313A3001030A200A8
:100BE8000030A1000030A0004B08A7004A08A6006A
:100BF8004908A5004808A4000A128A11EF240A121D
:100C08008A110318082E092E0D2E0430831203139F
:100C1800880008000A128A1188260A128A110830E8
:100C2800F3000030F4000A128A113F240A128A11D4
:100C3800730883120313C4004408F7003F30AD0063
:100C4800FA30AC003330AB009C30AA007708C400FF
:100C5800C501C601C7014708F6004608F500450862
:100C6800F4004408F30001300A128A1183230A129F
:100C78008A11760883120313B1007508B00074084E
:100C8800AF007308AE000A128A1122200A128A11D4
:100C9800831203132D08CB002C08CA002B08C900A7
:100CA8002A08C8000A128A1193250A128A11132EDB
:100CB8000A128A110C2883120313A400A001A101AF
:100CC8007308F500F6017508A2007608A300241C35
:100CD8006E2E6F2E752E2208A0070318A10A23086E
:100CE800A10701300310A20DA30DFF3E031D762EB0
:100CF8000310A40C2408031D822E832E6B2E2108BA
:100D0800F4002008F30008008316031788018901FE
:100D180083160313860188018312031388018B1736
:100D28000B178C11831603138C158516F301F40128
:100D3800F50124300A128A11A4260A128A11080021
:100D4800F600831603138712761DAB2EAC2EB02E39
:100D5800750894008715B42E7308750494008711DC
:100D68007608740483120313940008008312031393
:100D78008C1DBF2EC02EC92E77080A128A11D026C4
:100D88000A128A11831203138C1172088A00710ED9
:100D98008300FE0E7E0E0900F00070088312031314
:040DA80093000800AC
:04400E00D120FF3F7F
:00000001FF
