:020000040000FA
:060000000A128A110C280F
:10000800FE00030EFB000A08FC000A128A116D2E7E
:100018000A128A110F28FD0183120313CC01CD01A6
:10002800CE01CF01D001D10183010A128A11BF2D5F
:100038008312031331088039B6003608BB00310833
:10004800B6003607B7003708C100B01F2C282D2886
:100058002E28411441080319322833284228410A1E
:10006800031D3728382840280030B1000030B00080
:100078000030AF000030AE00B0174A280030B100A1
:100088000030B0000030AF000030AE0035088039D5
:10009800B6003608BB063508B6003607B70037087D
:1000A800C000B41F582859285A284014400803197A
:1000B8005E285F286E28400A031D632864286C2880
:1000C8000030B5000030B4000030B3000030B2009A
:1000D800B41776280030B5000030B4000030B30003
:1000E8000030B200400803197A287B28802841088C
:1000F800031D7F28802889280030B1000030B00017
:100108000030AF000030AE007C2B2E08B600360859
:10011800A00034080A128A1120260A128A118312B2
:1001280003132108C7002008C6004608B600B70117
:10013800B801B9013908BF003808BE003708BD004A
:100148003608BC004708B600B701B801B90139083C
:10015800C5003808C4003708C3003608C2002F0895
:10016800B6003608A00033080A128A1120260A129F
:100178008A11831203132108C7002008C600460805
:10018800B600B701B801B9013608BC073708031132
:100198000318013E0319D128BD07380803110318B5
:1001A800013E0319D828BE07390803110318013E78
:1001B8000319DF28BF074708B600B701B801B9011E
:1001C8003608C207370803110318013E0319ED2842
:1001D800C307380803110318013E0319F428C4079C
:1001E800390803110318013E0319FB28C507300815
:1001F800B6003608A00032080A128A1120260A1210
:100208008A11831203132108C7002008C600460874
:10021800B600B701B801B9013608BC0737080311A1
:100228000318013E03191929BD07380803110318DB
:10023800013E03192029BE07390803110318013E9E
:1002480003192729BF074708B600B701B801B90144
:100258003608C207370803110318013E0319352968
:10026800C307380803110318013E03193C29C407C2
:10027800390803110318013E03194329C50708303B
:10028800B6000310BC0DBD0DBE0DBF0DB60B452944
:100298002F08B6003608A00032080A128A11202654
:1002A8000A128A11831203132108C7002008C60006
:1002B8004608B6004708B700B801B9013608BC07B8
:1002C800370803110318013E03196B29BD073808C5
:1002D80003110318013E03197229BE0739080311D7
:1002E8000318013E03197929BF072E08B6003608FE
:1002F800A00033080A128A1120260A128A118312D2
:1003080003132108C7002008C6004608B60047089E
:10031800B700B801B9013608BC073708031103183C
:10032800013E03199829BD07380803110318013E37
:1003380003199F29BE07390803110318013E031941
:10034800A629BF070830B6000310BC0DBD0DBE0DB1
:10035800BF0DB60BA8292E08B6003608A000320833
:100368000A128A1120260A128A11831203132108FD
:10037800C7002008C6004608B6004708B700B801FD
:10038800B9013608BC07370803110318013E0319E1
:10039800CE29BD07380803110318013E0319D529D2
:1003A800BE07390803110318013E0319DC29BF07EA
:1003B8002F08B6003608A00034080A128A11202631
:1003C8000A128A11831203132108C7002008C600E5
:1003D8004608B6004708B700B801B9013608C20791
:1003E800370803110318013E0319FB29C30738080E
:1003F80003110318013E0319022AC407390803111F
:100408000318013E0319092AC5073008B600360843
:10041800A00033080A128A1120260A128A118312B0
:1004280003132108C7002008C6004608B60047087D
:10043800B700B801B9013608C20737080311031815
:10044800013E0319282AC307380803110318013E7F
:1004580003192F2AC407390803110318013E031989
:10046800362AC5073008B6003608A00034080A1234
:100478008A1120260A128A11831203132108C70041
:100488002008C6004608B6004708B700B801B901F9
:1004980008300310B60DB70DB80DB90DFF3E031D9A
:1004A8004D2A3608C207370803110318013E0319FD
:1004B8005E2AC307380803110318013E0319652A89
:1004C800C407390803110318013E03196C2AC5072C
:1004D8003C08B6003D08B7003E08B8003F08B90020
:1004E80018300310B90CB80CB70CB60CFF3E031D3E
:1004F800752A3608C207370803110318013E031985
:10050800862AC307380803110318013E03198D2AE8
:10051800C407390803110318013E0319942AC507B3
:100528000830B6000310BC0DBD0DBE0DBF0DB60BD7
:10053800962A41084007B600B701B70D3608823E33
:10054800C60037080318013EFF3EC700C82A01301D
:10055800B6000310C20DC30DC40DC50DB60BAD2AF0
:10056800BF1FB72AB82AB92A42140130B6000310AF
:10057800BC0DBD0DBE0DBF0DB60BBB2AFF30C607A7
:100588000318C70AFF30C707C41FCB2ACC2AAB2AD7
:10059800C001BF1FD02AD12AED2AFF303C05B60082
:1005A800FF303D05B700FF303E05B8007F303F05FE
:1005B800B90039083804370436040319E42AE52A4F
:1005C800E82AC001C00AED2A421CEB2AEC2AED2ACF
:1005D800E52A40080319F12AF22A232B0130C20721
:1005E800003003180130C307003003180130C40776
:1005F800003003180130C507451C032B042B232B9F
:100608004208B6004308B7004408B8004508B900D6
:100618000130BA00390DB90CB80CB70CB60CBA0BCE
:100628000E2B3908C5003808C4003708C30036083F
:10063800C2000130C6070318C70A0030C7074708B9
:10064800803AFF0080307F02031D2C2BFF304602CA
:10065800031C2F2B302B3B2B7F3083120313C50039
:100668008030C4000030C3000030C200702B8312F9
:1006780003134708803AFF0080307F02031D462B92
:10068800013046020318492B4A2B562B003083129F
:100698000313C5000030C4000030C3000030C2009E
:1006A800BB01702B831203134608B6003608C1003D
:1006B800FF30C205FF30C3057F30C4050030C505D3
:1006C800411C672B682B692BC4174108B60003101F
:1006D800360CB7003708C5003B08B6003608C50415
:1006E8004508B1004408B0004308AF004208AE0016
:1006F800080083120313A80028080319842B852BEC
:10070800992BA31F882B892B992B2009AA00210933
:10071800AB002209AC002309AD00AA0A0319AB0AF1
:100728000319AC0A0319AD0AA12B2308AD0022084E
:10073800AC002108AB002008AA00230822042104E9
:100748002004031DA82BA92BB22B0030A3000030D6
:10075800A2000030A1000030A000382C9630A40080
:100768002408A900C42B0130A4002408A9070130DB
:100778000310AD0CAC0CAB0CAA0CFF3E031DBC2B3C
:10078800FE302D05031DC92BCA2BB72BE62B0130D4
:10079800A4002408A9070130AA0700300318013073
:1007A800AB07003003180130AC07003003180130E4
:1007B800AD0701300310AD0CAC0CAB0CAA0CFF3E1E
:1007C800031DDE2BFF302D05031DEB2BEC2BCB2B54
:1007D800F82B0130A9020130A4000310AA0DAB0DBB
:1007E800AC0DAD0DA40BF12BAC1BFB2BFC2B022C81
:1007F800023029020318012C022CED2B2918052C94
:10080800062C0E2CFF30AA05FF30AB057F30AC0557
:10081800FF30AD050310A90C2908A400A501A60105
:10082800A70118300310A40DA50DA60DA70DFF3EB6
:10083800031D162C2408AA042508AB042608AC04BA
:100848002708AD04280803192A2C2B2C302CA31FA9
:100858002E2C2F2C302CAD172D08A3002C08A2000D
:100868002B08A1002A08A00008008F2C9F121F1235
:100878009F111F11C82C9F121F129F111F15C82CE2
:100888009F121F129F151F11C82C9F121F129F1510
:100898001F15C82C9F121F169F111F11C82C9F12BD
:1008A8001F169F111F15C82C9F121F169F151F1169
:1008B800C82C9F121F169F151F15C82C9F161F1294
:1008C8009F111F11C82C9F161F129F111F15C82C8E
:1008D8009F161F129F151F11C82C9F161F129F15B8
:1008E8001F15C82C9F161F169F111F11C82C9F1665
:1008F8001F169F111F15C82C9F161F169F151F1115
:10090800C82C9F161F169F151F15C82C9F121F1243
:100918009F111F11C82C831203132108003A0319D1
:10092800962C8A2C2008003A03193A2C013A03190C
:100938003F2C033A0319442C013A0319492C073A6E
:1009480003194E2C013A0319532C033A0319582C56
:10095800013A03195D2C0F3A0319622C013A031965
:10096800672C033A03196C2C013A0319712C073AC6
:100978000319762C013A03197B2C033A0319802CAE
:10098800013A0319852C8A2C0800031083120313DB
:10099800220D230DA4002408AA002A08031DD52C23
:1009A800D62CDF2C0030A3000030A2000030A100BC
:1009B8000030A000442D2008A4002108A50022082A
:1009C800A6002308A7001F300310A70CA60CA50C2F
:1009D800A40CFF3E031DE82C2408A8002808A90041
:1009E800A217FF30A005FF30A105FF30A205003097
:1009F800A3059630AA02AA1F022D032D1D2D2A0831
:100A0800803A973E0318092D0A2D0B2DD62C01305C
:100A18000310A30CA20CA10CA00CFF3E031D0C2D6F
:100A28000130A4002408AA07031D1B2D1C2D0B2D23
:100A3800342D20302A02031C222D232D2F2DD62CB5
:100A48000130A4000310A00DA10DA20DA30DA40B4D
:100A5800262D0130AA022A08031D332D342D242DFA
:100A680029080319382D392D442DA009A109A209F7
:100A7800A309A00A0319A10A0319A20A0319A30AC0
:100A880008000310720D730DF4007408FA007A0858
:100A9800031D4F2D502D592D0030F3000030F2006A
:100AA8000030F1000030F000BE2D7008F40071082D
:100AB800F5007208F6007308F7001F300310F70CF2
:100AC800F60CF50CF40CFF3E031D622D7408F800BB
:100AD8007808F900F217FF30F005FF30F105FF3014
:100AE800F2050030F3059630FA02FA1F7C2D7D2DB1
:100AF800972D7A08803A973E0318832D842D852DEB
:100B0800502D01300310F30CF20CF10CF00CFF3EE9
:100B1800031D862D0130F4007408FA07031D952D76
:100B2800962D852DAE2D20307A02031C9C2D9D2DEF
:100B3800A92D502D0130F4000310F00DF10DF20D28
:100B4800F30DF40BA02D0130FA027A08031DAD2D28
:100B5800AE2D9E2D79080319B22DB32DBE2DF009A7
:100B6800F109F209F309F00A0319F10A0319F20A63
:100B78000319F30A08000A128A11B0260A128A1108
:100B88000A128A1190260A128A110A128A119026CC
:100B98000A128A1183120313C8004808D1003F3093
:100BA800B100F930B0009930AF009A30AE0051086A
:100BB800C800C901CA01CB014B08A3004A08A2001A
:100BC8004908A1004808A00001300A128A117D23B3
:100BD8000A128A11831203132308B5002208B400ED
:100BE8002108B3002008B2000A128A111C200A1238
:100BF8008A11831203133108CF003008CE002F0862
:100C0800CD002E08CC004F08A3004E08A2004D08C6
:100C1800A1004C08A0000A128A11C9240A128A11DC
:100C28008312031320080A128A1149260A128A110C
:100C3800C42D0A128A110C2883120313A800A401D8
:100C4800A5012008A200A3012208A6002308A700E6
:100C5800281C2F2E302E362E2608A4070318A50A86
:100C68002708A50701300310A60DA70DFF3E031D99
:100C7800372E0310A80C2808031D432E442E2C2EB3
:100C88002508A1002408A000080083120313A0006F
:100C9800193020020318512E522E552E013088008B
:100CA8006C2E1A302002031C5A2E5B2E642E243020
:100CB80020020318602E612E642E023088006C2EEC
:100CC80025302002031C692E6A2E6C2E0430880001
:100CD8000800831203138C1D722E732E892E4F0861
:100CE800F3004E08F2004D08F1004C08F0000A121B
:100CF8008A1145250A128A1170080A128A11ED26EE
:100D08000A128A11831203138C117C088A007B0E45
:100D18008300FE0E7E0E0900083083120313A00024
:100D28000030A1000A128A1139240A128A1183128A
:100D380003131F179F131F14A53083120313A20058
:100D4800A20BA42EA72E831203139F149F18AD2E57
:100D5800AE2EAA2E1E080800083083160317880036
:100D680089018316031388018312031388018601FE
:100D78008B170B178C11831603138C15851683128A
:100D88000313A001A101A20124300A128A11CF265F
:100D98000A128A11080083120313A300831603138F
:100DA800871283120313231DDA2EDB2EE12E22086D
:100DB8008316031394008715E72E20082204831650
:100DC800031394008711831203132308210494004A
:0E0DD8000800F0007008831203139300080057
:04400E00D120FF3F7F
:00000001FF
