:020000040000FA
:060000000A128A11FC2F18
:100E9400F0007008831203139300080083160313F1
:100EA400141C552F562F502F08000A128A11502750
:100EB4000A128A118312031313080800F30083161D
:100EC40003138712731D672F682F6C2F7208940009
:100ED4008715702F700872049400871173087104C9
:100EE40083120313940008008316031788018901F1
:100EF400831603138901880183120313890188016E
:100F04008316031307108710071183120313871422
:100F14000715F001F101F20124300A128A11602749
:100F24000A128A1108000A128A1176270A128A11F3
:100F34008312031307110330F5009730F400F40B08
:100F4400A12FF50BA12FA62F01300A128A114A27CF
:100F54000A128A110A128A1157270A128A11831255
:100F6400031386000330F5009730F400F40BB82F18
:100F7400F50BB82FBD2F8312031307150330F500AB
:100F84009730F400F40BC42FF50BC42FC92F831230
:100F9400031387100330F5009730F400F40BD02FBF
:100FA400F50BD02FD52F01300A128A114A270A12C5
:100FB4008A110A128A1157270A128A1183120313FB
:100FC40088000330F5009730F400F40BE72FF50B9D
:100FD400E72FEC2F8312031387140330F5009730A7
:100FE400F400F40BF32FF50BF32FF82F9A2F0A12BA
:0C0FF4008A11002883010A128A11952F2F
:04400E00D120FF3F7F
:00000001FF
