:020000040000FA
:060000000A128A110E280D
:10000800FE00030EF6000408F7000A08F8000A12BA
:100018008A1123280A128A111128F901FA01FB0111
:10002800FC0183120313A001A101A201A301A401F1
:10003800A501A601A70183010A128A1166290B1CD2
:100048002628272884280B1083120313061C2D2822
:100058002E283B280230F5000430F400BA30F300B3
:10006800F30B3428F40B3428F50B342800008312E2
:10007800031306184028412856280130FB070318A7
:10008800FC0A0030FC077B0888000230F5000430C9
:10009800F400BA30F300F30B4F28F40B4F28F50B9C
:1000A8004F28000083120313861C5B285C286928EC
:1000B8000230F5000430F400BA30F300F30B622884
:1000C800F40B6228F50B62280000831203138618CC
:1000D8006E286F288428FF30FB070318FC0AFF30BE
:1000E800FC077B0888000230F5000430F400BA30C1
:1000F800F300F30B7D28F40B7D28F50B7D28000019
:10010800831203130C1F89288A28B3280C1308307C
:10011800F0000030F1000A128A1125220A128A1111
:100128000330F4009730F300F30B9828F40B982869
:100138009D28831203139F14AD281E08F300F401B1
:100148007308A6007408A7000A128A11DB210A1294
:100158008A11831203139F18B228B328A1280B1DF4
:10016800B628B728C0280B11043081000130A40735
:100178000318A50A0030A50778088A0077088400C4
:10018800760E8300FE0E7E0E0900F200831603131E
:100198008701831203138701FE283F3087006529F2
:1001A8000630870065295B30870065294F30870056
:1001B80065296630870065296D30870065297D309F
:1001C800870065290730870065297F308700652902
:1001D8006F30870065297730870065291F308700D1
:1001E80065294E30870065293D30870065294730ED
:1001F800870065297208F000F1017108003A0319B7
:100208000629D1287008003A0319D128013A0319A0
:10021800D428033A0319D728013A0319DA28073AE8
:100228000319DD28013A0319E028033A0319E328E2
:10023800013A0319E6280F3A0319E928013A031984
:10024800EC28033A0319EF28013A0319F228073A70
:100258000319F528013A0319F828033A0319DA288B
:10026800013A0319FB281F3A0319E928303A031900
:10027800DD28103A0319F528703A0319D728103ADF
:100288000319EF28303A0319E328103A0319DA283A
:10029800F03A0319D428103A0319EC28303A031914
:1002A800E028103A0319F828703A0319DA28103AA6
:1002B8000319F228303A0319E628103A0319FB28E3
:1002C800D12808000A128A1112220A128A110A1267
:1002D8008A1136220A128A110A128A114A220A122D
:1002E8008A110A128A1143220A128A1183120313ED
:1002F8002508803AFF0080307F02031D85290130E0
:100308002402031C88298929922983120313A40132
:10031800A5010A128A11FE210A128A110A128A11EB
:10032800B4210A128A118312031327087C02031DC1
:100338009F2926087B020318A229A329A5290914A5
:100348007A297C082702031DAB297B08260203189B
:10035800AE29AF297A2909107A290A128A110E289A
:10036800831203132708A9002608A80004300310E5
:10037800A90CA80CFF3E031DBB290F302805A000BF
:1003880000302905A1000F302605A80000302705F8
:10039800A900A80EA90EF030A90528080F39A9044C
:1003A800F030A8052808A2002908A3000800831235
:1003B8000313890179087A04031DE329E429EE2946
:1003C80020080A128A11C9200A128A1183120313FB
:1003D8008914FD2979037A04031DF329F429FD29D9
:1003E80022080A128A11C9200A128A1183120313D9
:1003F8000915080079037A04031D032A042A072A29
:10040800F901FA01112A79087A04031D0C2A0D2A28
:10041800112A0130F9000030FA000800831603138E
:100428008801073086008501890183160317880132
:1004380089018312031385018601870188018901D7
:1004480008002B2A6130831203139F00352A710894
:10045800003A0319302A352A7008083A0319262A5F
:10046800352A080004308312031381008130831673
:1004780003138100A9308B0003309600080083160F
:1004880003130C17831203130C17080083160313A6
:040498009F010800B8
:04400E00D120FF3F7F
:00000001FF
