:020000040000FA
:060000000A128A110E280D
:10000800FE00030EF6000408F7000A08F8000A12BA
:100018008A1123280A128A111128F901FA01FB0111
:10002800FC0183120313A001A101A201A301A401F1
:10003800A501A601A70183010A128A1164290B1CD4
:100048002628272884280B1083120313061C2D2822
:100058002E283B280230F5000430F400BA30F300B3
:10006800F30B3428F40B3428F50B342800008312E2
:10007800031306184028412856280130FB070318A7
:10008800FC0A0030FC077B0888000230F5000430C9
:10009800F400BA30F300F30B4F28F40B4F28F50B9C
:1000A8004F28000083120313861C5B285C286928EC
:1000B8000230F5000430F400BA30F300F30B622884
:1000C800F40B6228F50B62280000831203138618CC
:1000D8006E286F288428FF30FB070318FC0AFF30BE
:1000E800FC077B0888000230F5000430F400BA30C1
:1000F800F300F30B7D28F40B7D28F50B7D28000019
:10010800831203130C1F89288A28B1280C1308307E
:10011800F0000030F1000A128A11FC210A128A113B
:10012800C730F3009728F30B96289A289B28831248
:1001380003139F14AB281E08F300F4017308A600EC
:100148007408A7000A128A11B2210A128A118312AE
:1001580003139F18B028B1289F280B1DB428B52871
:10016800BE280B11043081000130A4070318A50A2A
:100178000030A50778088A0077088400760E830087
:10018800FE0E7E0E0900F200831603138701831208
:1001980003138701FC283F30870063290630870056
:1001A80063295B30870063294F30870063296630F5
:1001B800870063296D30870063297D3087006329B4
:1001C8000730870063297F30870063296F308700F5
:1001D80063297730870063291F30870063294E30F1
:1001E800870063293D3087006329473087006329EA
:1001F8007208F000F1017108003A03190429CF28A8
:100208007008003A0319CF28013A0319D228033A93
:100218000319D528013A0319D828073A0319DB2806
:10022800013A0319DE28033A0319E128013A0319B0
:10023800E4280F3A0319E728013A0319EA28033A90
:100248000319ED28013A0319F028073A0319F3288E
:10025800013A0319F628033A0319D828013A031971
:10026800F9281F3A0319E728303A0319DB28103A0E
:100278000319F328703A0319D528103A0319ED2801
:10028800303A0319E128103A0319D828F03A03192B
:10029800D228103A0319EA28303A0319DE28103A0E
:1002A8000319F628703A0319D828103A0319F028C8
:1002B800303A0319E428103A0319F928CF2808001E
:1002C8000A128A11E9210A128A110A128A111C22B9
:1002D8000A128A110A128A1130220A128A110A1283
:1002E8008A1129220A128A11831203132508803AD7
:1002F800FF0080307F02031D832901302402031C84
:1003080086298729902983120313A401A5010A12BB
:100318008A11D5210A128A110A128A110D220A128B
:100328008A118312031327087C02031D9D292608BE
:100338007B020318A029A129A329091478297C087C
:100348002702031DA9297B0826020318AC29AD2919
:100358007829091078290A128A110E2883120313A2
:10036800890179087A04031DBA29BB29C5292008FF
:100378000A128A11C7200A128A11831203138914D8
:10038800D42979037A04031DCA29CB29D429220840
:100398000A128A11C7200A128A118312031309113B
:1003A800080079037A04031DDA29DB29DE29F9011B
:1003B800FA01E82979087A04031DE329E429E829E0
:1003C8000130F9000030FA00080083160313880191
:1003D8000730860085018901831603178801890182
:1003E80083120313850186018701880189010800AA
:1003F800022A6130831203139F000C2A7108003A05
:100408000319072A0C2A7008083A0319FD290C2A2F
:100418000800F030831203132605A00000302705DA
:10042800A1000F302605A20000302705A300080010
:100438000430831203138100813083160313810073
:10044800A9308B00033096000800831603130C179D
:10045800831203130C170800831603139F01080067
:04400E00D120FF3F7F
:00000001FF
