:020000040000FA
:060000000A128A110E280D
:10000800FE00030EF6000408F7000A08F8000A12BA
:100018008A1123280A128A111128F901FA01FB0111
:10002800FC0183120313A001A101A201A301A401F1
:10003800A501A601A70183010A128A1169290B1CCF
:100048002628272884280B1083120313061C2D2822
:100058002E283B280230F5000430F400BA30F300B3
:10006800F30B3428F40B3428F50B342800008312E2
:10007800031306184028412856280130FB070318A7
:10008800FC0A0030FC077B0888000230F5000430C9
:10009800F400BA30F300F30B4F28F40B4F28F50B9C
:1000A8004F28000083120313861C5B285C286928EC
:1000B8000230F5000430F400BA30F300F30B622884
:1000C800F40B6228F50B62280000831203138618CC
:1000D8006E286F288428FF30FB070318FC0AFF30BE
:1000E800FC077B0888000230F5000430F400BA30C1
:1000F800F300F30B7D28F40B7D28F50B7D28000019
:10010800831203130C1F89288A28B3280C1308307C
:10011800F0000030F1000A128A111A220A128A111C
:100128000330F4009730F300F30B9828F40B982869
:100138009D28831203139F14AD281E08F300F401B1
:100148007308A6007408A7000A128A11D0210A129F
:100158008A11831203139F18B228B328A1280B1DF4
:10016800B628B728C0280B11043081000130A40735
:100178000318A50A0030A50778088A0077088400C4
:10018800760E8300FE0E7E0E0900F200831603131E
:10019800870183120313870101293F3087006829EB
:1001A8000630870068295B30870068294F30870050
:1001B80068296630870068296D30870068297D3096
:1001C800870068290730870068297F3087006829F9
:1001D8006F30870068297730870068291F308700CB
:1001E80068294E30870068293D30870068294730E4
:1001F80087006829FF30870068297208F000F1013C
:100208007108003A03190929FE287008003A0319F1
:10021800D128013A0319D428033A0319D728013AF7
:100228000319DA28073A0319DD28013A0319E028E7
:10023800033A0319E328013A0319E6280F3A031988
:10024800E928013A0319EC28033A0319EF28013A7F
:100258000319F228073A0319F528013A0319F8286F
:10026800033A0319DA28013A0319FB281F3A03193C
:10027800E928303A0319DD28103A0319F528703AAD
:100288000319D728103A0319EF28303A0319E3283D
:10029800103A0319DA28F03A0319D428103A031946
:1002A800EC28303A0319E028103A0319F828703A74
:1002B8000319DA28103A0319F228303A0319E62804
:1002C800103A0319FB28FE2808000A128A1107228F
:1002D8000A128A110A128A112B220A128A110A1288
:1002E8008A113F220A128A110A128A1138220A1226
:1002F8008A11831203132508803AFF0080307F0299
:10030800031D882901302402031C8B298C29952977
:1003180083120313A401A5010A128A11F3210A12F8
:100328008A110A128A11A9210A128A118312031347
:1003380008081E02031CA129A229A42909147D2941
:1003480009107D290A128A110E288312031327081F
:10035800A9002608A80004300310A90CA80CFF3E29
:10036800031DB0290F302805A00000302905A10081
:100378000F302605A80000302705A900A80EA90EF1
:10038800F030A90528080F39A904F030A805280875
:10039800A2002908A3000800831203138901790821
:1003A8007A04031DD829D929E32920080A128A11B9
:1003B800C9200A128A11831203138914F2297903B6
:1003C8007A04031DE829E929F22922080A128A1168
:1003D800C9200A128A118312031309150800790328
:1003E8007A04031DF829F929FC29F901FA01062ADA
:1003F80079087A04031D012A022A062A0130F90025
:100408000030FA00080083160313880107308600BD
:100418008501890183160317880189018312031353
:10042800850186018701880189010800202A613039
:10043800831203139F002A2A7108003A0319252AF8
:100448002A2A7008083A03191B2A2A2A08000430A5
:100458008312031381008130831603138100A930AE
:100468008B00033096000800831603130C178312C1
:0E04780003130C170800831603139F010800DE
:04400E00D120FF3F7F
:00000001FF
