:020000040000FA
:060000000A128A110C280F
:10000800FE00030EF1000A08F2000A168A15F12D07
:100018000A128A110F28FA0183120313EC01ED0169
:100028008313BF308400D5300A168A15C5240A12F6
:100038008A1183010A168A11192F831603133A08A5
:1000480039043804031929282A28BA2838088312B9
:100058000313C60083160313390883120313C7005A
:10006800831603133A0883120313C8000A168A1169
:1000780079230A128A118312031349084804470492
:100088004604031D48284928BA288316031337084D
:10009800803AFF0080307F02031D54280230360268
:1000A800031C57285828BA28831603132E08F30070
:1000B8002F08F4003008F5007030F6008930F7009A
:1000C8004030F8000A168A1551260A128A110318B8
:1000D8006E286F287828F73083160313B60703189D
:1000E800B70AFF30B7078028F83083160313B6071E
:1000F8000318B70AFF30B70736080A128A154525CC
:100108000A128A11831203133D0883160313AE00E3
:10011800831203133E0883160313AF0083120313DD
:100128003F0883160313B0003808F3003908F400B9
:100138003A08F5002E08F6002F08F7003008F800F6
:100148000A168A11B5240A128A117608831603132F
:10015800B5007508B4007408B3007308B200003025
:10016800B8000030B9000030BA00372983160313ED
:10017800380883120313C600831603133908831241
:100188000313C700831603133A0883120313C80026
:100198000A168A1179230A128A118312031349084D
:1001A80083160313B5008312031348088316031339
:1001B800B40083120313470883160313B300831292
:1001C8000313460883160313B2003508831203137A
:1001D800A60083160313340883120313A50083169D
:1001E8000313330883120313A4008316031332087E
:1001F80083120313A3000A168A151E260A128A11EF
:10020800831203132308DA002408DB002508DC0026
:1002180083160313380883120313DD0083160313B0
:10022800390883120313DE00831603133A08831276
:100238000313DF000A168A1556250A128A1183123B
:1002480003135A0883160313B800831203135B08B9
:1002580083160313B900831203135C088316031370
:10026800BA00B601B701BE01BE0A3E08A0000130BF
:100278000310A00DFF3E031D3C290310200D4F3E27
:1002880084000A168A110A200A128A11A1000A1685
:100298008A110A200A128A11A2000A168A110A2053
:1002A8000A128A11A3000A168A110A200A128A1150
:1002B800A40024083502031D6B2923083402031DFA
:1002C8006B2922083302031D6B2921083202031807
:1002D8006E296F2970297A290130A0002008BE07ED
:1002E8000A303E06031D79297A2939293E083C0738
:1002F800A0003D0803183D0AA10036082007A20007
:1003080037080318370A2107A3002208AC0223087C
:10031800031CAD03AD023C083D040319942995293B
:100328009B29FF30AC070318AD0AFF30AD07033037
:100338002A05A00000302B05A1002008210403197C
:10034800A629A729BC29FF30AC070318AD0AFF303E
:10035800AD07BC29203083160313A0003B08840096
:100368002008831380000130A0002008BB07A729BC
:100378002D08803AFF0080307F02031DC529013017
:100388002C020318C829C929AE2903308316031380
:100398002A05A00000302B05A1002008210403191C
:1003A800D629D729892A2D30A0003B0884002008A7
:1003B800831380000130A0002008BB07892A3E086B
:1003C800A00001300310A00DFF3E031DE629031015
:1003D800200D4F3E84000A168A110A200A128A113B
:1003E80083120313A0000A168A110A200A128A111E
:1003F800A1000A168A110A200A128A11A2000A16F6
:100408008A110A200A128A11A300831603133508D9
:1004180083120313A70083160313340883120313EC
:10042800A60083160313330883120313A50083164B
:100438000313320883120313A4000A168A11BC217D
:100448000A128A1183120313230883160313B100B7
:1004580083120313220883160313B00083120313B5
:10046800210883160313AF00831203132008831691
:100478000313AE00003083120313AB000030AA0050
:100488000030A9000A30A80083160313310883122C
:100498000313AF0083160313300883120313AE004F
:1004A800831603132F0883120313AD008316031357
:1004B8002E0883120313AC000A168A1551270A1254
:1004C8008A11831203132B0883160313B1008312B6
:1004D80003132A0883160313B00083120313290891
:1004E80083160313AF00831203132808831603131C
:1004F800AE002E08303EA0003B088400200883137D
:1005080080000130A0002008BB070130BE023E0A6F
:10051800031D8F2A902AE329A42A30308316031357
:10052800A0003B0884002008831380000130A0004D
:100538002008BB07FF30B6070318B70AFF30B70714
:100548003708803AFF0080307F02031DAD2A013052
:1005580036020318B02AB12A912A831603133D08DC
:10056800803AFF0080307F02031DBC2A09303C021C
:10057800031CBF2AC02AC72A083083160313A00009
:100588002008BE00CD2A831603133C08A0002008CB
:10059800BE003E08A000A1012008BC022108031CDF
:1005A800BD03BD023E080319DA2ADB2AE62A2E30EB
:1005B800A0003B0884002008831380000130A000BD
:1005C8002008BB073E080A128A1545250A128A1117
:1005D800831203133D0883160313A6008312031323
:1005E8003E0883160313A700831203133F088316DC
:1005F8000313A800260883120313B00083160313FD
:10060800270883120313B1008316031328088312E3
:100618000313B20083160313380883120313AD00C3
:1006280083160313390883120313AE0083160313CA
:100638003A0883120313AF000A168A1134260A12E5
:100648008A11831203132D08C6002E08C7002F082D
:10065800C8000A168A1179230A128A118312031311
:10066800490883160313B500831203134808831639
:100678000313B40083120313470883160313B3004C
:1006880083120313460883160313B2004C2C3E084A
:10069800A00001300310A00DFF3E031D4E2B0310D8
:1006A800200D4F3E84000A168A110A200A128A1168
:1006B80083120313A0000A168A110A200A128A114B
:1006C800A1000A168A110A200A128A11A2000A1623
:1006D8008A110A200A128A11A30083160313350807
:1006E80083120313A700831603133408831203131A
:1006F800A60083160313330883120313A500831679
:100708000313320883120313A4000A168A11BC21AA
:100718000A128A1183120313230883160313B100E4
:1007280083120313220883160313B00083120313E2
:10073800210883160313AF008312031320088316BE
:100748000313AE00003083120313AB000030AA007D
:100758000030A9000A30A800831603133108831259
:100768000313AF0083160313300883120313AE007C
:10077800831603132F0883120313AD008316031384
:100788002E0883120313AC000A168A1551270A1281
:100798008A11831203132B0883160313B1008312E3
:1007A80003132A0883160313B000831203132908BE
:1007B80083160313AF008312031328088316031349
:1007C800AE002E08303EA0003B08840020088313AA
:1007D80080000130A0002008BB073E08A0000130BF
:1007E8000310A00DFF3E031DF42B0310200D4F3EF8
:1007F80084000A168A110A200A128A118312031326
:10080800A8000A168A110A200A128A11A9000A16D3
:100818008A110A200A128A11AA000A168A110A20C5
:100828000A128A11AB0083160313350883120313C7
:10083800AF0083160313340883120313AE00831624
:100848000313330883120313AD008316031332080E
:1008580083120313AC000A168A1551270A128A114B
:10086800831203132B0883160313B5008312031393
:100878002A0883160313B400831203132908831666
:100888000313B30083120313280883160313B2005B
:100898000130BE023E0A031D522C532C4B2B652CF3
:1008A8003030A0003B08840020088313800001300A
:1008B800A0002008BB07FF30BC070318BD0AFF30A3
:1008C800BD073C083D04031D6A2C6B2C542C1B2EC1
:1008D8002908840083130008A000840A0008A100E6
:1008E8002008B2002108B3000030B31BFF30B40069
:1008F800B5000230A0002008A907B51F842C852C5C
:10090800942C0330AA040030AB04B209B309B4092B
:10091800B509B20A0319B30A0319B40A0319B50AC7
:100928003C083D04031D992C9A2CA82C3508340446
:1009380033043204031DA12CA22CA82C0130BC07BF
:100948000318BD0A0030BD07BE01BE0A3E08A0005C
:1009580001300310A00DFF3E031DAD2C0310200D28
:100968004F3E84000A168A110A200A128A11A10031
:100978000A168A110A200A128A11A2000A168A1176
:100988000A200A128A11A3000A168A110A200A12DA
:100998008A11A40024083502031DDC2C2308340224
:1009A800031DDC2C22083302031DDC2C2108320233
:1009B8000318DF2CE02CE12CEB2C0130A0002008E0
:1009C800BE070A303E06031DEA2CEB2CAA2C3D0874
:1009D800803A803C031DF22C3C083E020318F52C9B
:1009E800F62CFD2C831603133C08A0002008BE003B
:1009F800152D831603133D08803AA000803020028D
:100A0800031D082D3E083C0203180B2D0C2D152D37
:100A1800831603133E08A000A1012008BC0021088A
:100A2800BD00831603132C082D0403191C2D1D2D3E
:100A38002F2D03302A05A00000302B05A100200827
:100A480021040319282D292D2F2DFF30AC07031859
:100A5800AD0AFF30AD072B1F322D332D4E2D3D082B
:100A6800803AA0002D08803A2002031D3D2D2C0855
:100A78003C020318402D412D4A2D831603133C08D0
:100A8800AC023D08031CAD03AD024E2D83160313C3
:100A9800AC01AD012D08803A803C031D552D2C0872
:100AA8003E020318582D592D652D831603133E0851
:100AB800A000A1012008AC022108031CAD03AD026F
:100AC800692D83160313AC01AD012C082D040319FD
:100AD8006E2D6F2D862D2030A0003B088400200845
:100AE800831380000130A0002008BB07FF30AC074B
:100AF8000318AD0AFF30AD072C082D04031D852D02
:100B0800862D6F2D03302A05A00000302B05A1008B
:100B1800200821040319912D922D0D2E2D30A000AF
:100B28003B0884002008831380000130A0002008BF
:100B3800BB070D2E003083120313AB000030AA0050
:100B48000030A9000A30A800831603133C08A0004F
:100B580001300310A00DFF3E031DAD2D0310200D25
:100B68004F3E84000A168A110A200A128A1183123B
:100B78000313A0000A168A110A200A128A11A1007A
:100B88000A168A110A200A128A11A2000A168A1164
:100B98000A200A128A11A300831603133508831248
:100BA8000313A70083160313340883120313A60044
:100BB80083160313330883120313A5008316031344
:100BC800320883120313A4000A168A11BC210A12E0
:100BD8008A11831203132308AF002208AE002108EC
:100BE800AD002008AC000A168A1551270A128A118E
:100BF800831203132808303E83160313A10021082B
:100C0800BE003E08A0003B08840020088313800033
:100C1800992DFF30BC070318BD0AFF30BD073C0AF9
:100C2800031D1A2E3D0A031D1A2E1B2E9E2D013060
:100C380083120313E007FF30600784000A168A1145
:100C48000A200A128A1183160313A0002008BE0086
:100C58003E08031D302E332E0A128A15952A3B08AA
:100C6800840083138001080083120313CC006E30C4
:100C78004C02031C402E412E1E2F0330C00040089A
:100C8800A9004C08C100C2014108F5004208F6005D
:100C98006430F3000030F4000A168A11BD200A12ED
:100CA8008A11740883120313A3007308A2000A3080
:100CB800A0000030A1000A168A150B270A128A1113
:100CC8008312031320080A168A151D250A128A1191
:100CD800433E84000A168A110A200A128A118312D6
:100CE8000313AD000A168A110A200A128A11AE00EF
:100CF8000A168A110A200A128A11AF000330C300AB
:100D08004308A9004C08C400C5014408A2004508CE
:100D1800A3006430A0000030A1000A168A150B2732
:100D28000A128A118312031320080A168A151D2530
:100D38000A128A115E3E84000A168A110A200A12D3
:100D48008A1183120313B0000A168A110A200A12A4
:100D58008A11B1000A168A110A200A128A11B200F1
:100D68000A168A1134260A128A11831203132D08CF
:100D7800C9002E08CA002F08CB000330C000400865
:100D8800A9004C08C100C2014108F5004208F6005C
:100D98000A30F3000030F4000A168A11BD200A1246
:100DA8008A1173080A168A151D250A128A11283E07
:100DB80084000A168A110A200A128A118312031360
:100DC800AD000A168A110A200A128A11AE000A1604
:100DD8008A110A200A128A11AF004908B0004A088D
:100DE800B1004B08B2000A168A1134260A128A1179
:100DF800831203132D08C6002E08C7002F08C80049
:100E08000030AD000030AE003F30AF004608B00003
:100E18004708B1004808B2000A168A1134260A1297
:100E28008A11831203132D08BD002E08BE002F0857
:100E3800BF00E02F0B304C02031C232F242FAD2FB3
:100E48000330C0004008A9004C08C100C201410895
:100E5800F5004208F6000A30F3000030F4000A16E4
:100E68008A11BD200A128A1173080A168A151D25CF
:100E78000A128A11283E84000A168A110A200A12C8
:100E88008A1183120313AD000A168A110A200A1266
:100E98008A11AE000A168A110A200A128A11AF00B6
:100EA8000330C3004308A9004C08C400C501440826
:100EB800A2004508A3000A30A0000030A1000A16CD
:100EC8008A150B270A128A118312031320080A169F
:100ED8008A151D250A128A11433E84000A168A11B2
:100EE8000A200A128A1183120313B0000A168A1103
:100EF8000A200A128A11B1000A168A110A200A1257
:100F08008A11B2000A168A1134260A128A1183122B
:100F180003132D08C9002E08CA002F08CB00003083
:100F2800AD000030AE003F30AF004908B0004A08BD
:100F3800B1004B08B2000A168A1134260A128A1127
:100F4800831203132D08BD002E08BE002F08BF0012
:100F5800E02F0030AD000030AE003F30AF0003306E
:100F6800C0004008A9004C080A168A151D250A1257
:100F78008A11283E84000A168A110A200A128A1148
:100F880083120313B0000A168A110A200A128A1162
:100F9800B1000A168A110A200A128A11B2000A162A
:100FA8008A1134260A128A11831203132D08BD00F0
:100FB8002E08BE002F08BF000800F5008312031397
:100FC800091475080A168A1589260A128A118312C5
:100FD800031389140330F400F40BF02F8312031366
:100FE80089100330F400F40BF72F2130F400F40BD0
:040FF800FB2F0800C3
:1010000083120313A601A41F062807280E28A3098C
:10101000A409A30A0319A40AA601A60A2308F30037
:101020002408F400F5018E30F8007808F600260850
:10103000F9007908F7000A168A11F7220A128A15B0
:10104000730883120313A3007408A4007508A50095
:10105000080073308400000883120313A000840A80
:101060000008A100840A0008A200840A0008A30066
:101070000310220D230DA4002408AD002D08031D2C
:10108000422843284C280030F6000030F50000309C
:10109000F4000030F3005429763084000008A000EA
:1010A000840A0008A100840A0008A200840A00083B
:1010B000A3000310220D230DA4002408AC002C086B
:1010C000031D63286428652843287330840000309A
:1010D0008004840A00308004840A80308004840AFA
:1010E0000030800473308400FF308005840AFF30B4
:1010F0008005840AFF308005840A00308005763040
:10110000840000308004840A00308004840A803027
:101110008004840A0030800476308400FF3080052B
:10112000840AFF308005840AFF308005840A00307D
:1011300080050030AB000030AA000030A90000306C
:10114000A8007F30AD02A0302C07A0002008AD021F
:101150002030A0002008AC000130A0000310A80D32
:10116000A90DAA0DAB0DA00BAE28763084000008A7
:10117000A000840A0008A100840A0008A200840AD2
:101180000008A300733084000008A400840A00084B
:10119000A500840A0008A600840A0008A700230806
:1011A0002702031DDD2822082602031DDD28210851
:1011B0002502031DDD2820082402031CE028E12865
:1011C0000429763084000008A000840A0008A100E9
:1011D000840A0008A200840A0008A3007330840077
:1011E00020088002840A2108031C210F8002840A3F
:1011F0002208031C220F8002840A2308031C230AEE
:101200008002033084022814733084000310800DA0
:10121000840A800D840A800D840A800D840384036F
:1012200084030130AC02031D16291729AC28AD1F19
:101230001A291B2935292D08803A9F3E0318212998
:1012400022292329432801300310AB0CAA0CA90C36
:10125000A80CFF3E031D24290130A0002008AD0783
:10126000031D3329342923294C2920302D02031C46
:101270003A293B29472943280130A0000310A80D33
:10128000A90DAA0DAB0DA00B3E290130AD022D0812
:10129000031D4B294C293C292B08F6002A08F50090
:1012A0002908F4002808F3000800831203134D08EE
:1012B000D3004E08D4004F08D5000310540D550D2F
:1012C000D6005608D9005008D3005108D40052085F
:1012D000D5000310540D550DD6005608D8005908F6
:1012E0000319732974298429580859020318792984
:1012F0007A298B295808D3005908D3021930530290
:10130000031C832984298B295008CD005108CE0065
:101310005208CF008A2A580803198F299029A0293A
:1013200059085802031895299629A1295908D3006C
:101330005808D30219305302031C9F29A029A12960
:101340008A2A0630D3005308D700CF1FA829A9291D
:10135000AA29D717D21FAD29AE29AF295717CE1703
:10136000FF30CD05FF30CE050030CF05D117FF305F
:10137000D005FF30D1050030D205580859020318B6
:10138000C229C329EF2901300310D00DD10DD20D90
:10139000FF3E031DC4290130D8025808590603191D
:1013A000D229D329E8290130D70257080739031D6C
:1013B000DA29DB29C329E82901300310CF0CCE0C30
:1013C000CD0CFF3E031DDD290130D3005308D907A2
:1013D00059085806031DED29EE29DC29202A590851
:1013E00058020318F429F529202A01300310CD0DE5
:1013F000CE0DCF0DFF3E031DF6290130D90258084E
:1014000059060319042A052A1A2A0130D702570857
:101410000739031D0C2A0D2AF5291A2A0130031059
:10142000D20CD10CD00CFF3E031D0F2A0130D3008B
:101430005308D80759085806031D1F2A202A0E2AC8
:10144000D71F232A242A342AFF30CD06FF30CE06A8
:10145000FF30CF060130CD07003003180130CE0732
:10146000003003180130CF07571F372A382A482A7F
:10147000FF30D006FF30D106FF30D2060130D00752
:10148000003003180130D107003003180130D207B3
:10149000D7014D08D0074E08031103184E0A03194F
:1014A000522AD1074F08031103184F0A0319592A6A
:1014B000D207D21F5C2A5D2A6F2AFF30D006FF3088
:1014C000D106FF30D2060130D007003003180130BA
:1014D000D107003003180130D207D701D70A5008CE
:1014E000F3005108F4005208F5005908D3005308DE
:1014F000F6005708D4005408F7000A168A11F7229C
:101500000A128A15730883120313CD007408CE00E3
:101510007508CF00080083160313BB006130A000DC
:101520002008A9000A128A111B2E25303E06031935
:101530009A2A9B2AA72A3E08A0003B08840020087C
:10154000831380000130A0002008BB07922AAC0161
:10155000AD01AA01AB0183120313600884000A16CF
:101560008A110A200A128A150A168A150B250A12F0
:101570008A15031CBC2ABD2A032B83160313AC0156
:10158000AD010A30F3000030F400831603132D0878
:10159000F6002C08F5000A168A157B250A128A1512
:1015A000740883160313AD007308AC008312031391
:1015B000600884000A168A110A200A128A15D03E91
:1015C00083160313A000FF3003180030A100200889
:1015D000AC070318AD0A2108AD070130A0002008B0
:1015E00083120313E007600884000A168A110A2098
:1015F0000A128A150A168A150B250A128A1503186B
:10160000022B032BC12A83120313600884000A16DD
:101610008A110A200A128A152E3A031D102B112B4B
:10162000632B831603132B170130A00020088312AD
:101630000313E00783160313BC01BD01512B0A30CD
:10164000F3000030F400831603133D08F6003C0855
:10165000F5000A168A157B250A128A157408831666
:101660000313BD007308BC008312031360088400D9
:101670000A168A110A200A128A15D03E831603130D
:10168000A000FF3003180030A1002008BC07031899
:10169000BD0A2108BD070130A000200883120313F2
:1016A000E0078312600884000A168A110A200A12D1
:1016B0008A150A168A150B250A128A150318612B3A
:1016C000622B1F2B6B2B83160313BC01BD012B1642
:1016D0006B2B2B158F2B013083120313E007FF3088
:1016E000600784000A168A110A200A128A158316D6
:1016F0000313BE00A000A1012108003A0319812BA9
:10170000922A2008003A0319422D643A03198F2BBC
:10171000023A0319692B0F3A03198F2B922A0030D2
:101720002A05A00007302B05A10020082104031979
:101730009A2B9D2B0A128A116C2C2B1EA02BA12BED
:10174000A52B0630BC000030BD002908840083139F
:101750000008B800840A0008B900840A0008BA002A
:101760000330A0002008A9073808F3003908F40066
:101770003A08F5000030F6000030F7000030F800BD
:101780000A168A1551260A128A150318C82BC92B66
:10179000E22B831603133808F3003908F4003A08E3
:1017A000F5000A168A15D7240A128A1573088316BB
:1017B0000313B8007408B9007508BA000330AA040E
:1017C0000030AB0483160313B601B7013A0839049D
:1017D00038040319EC2BED2BE72CB830840083136D
:1017E0000008A000840A0008A100840A0008A200E2
:1017F000840A0008A3000F300310A30CA20CA10C54
:10180000A00CFF3E031DFC2BFF302005A400003080
:101810002105A5002408823EB60025080318013ED4
:10182000FF3EB700FF30B6070318B70AFF30B7070F
:101830000330F3000030F4003708F6003608F500F6
:101840000A168A157B250A128A1574088316031353
:10185000B7007308B6000A3083120313A0000030EB
:10186000A10083160313370883120313A300831602
:101870000313360883120313A2000A168A112422C6
:101880000A128A1583120313210883160313B70063
:1018900083120313200883160313B600B71F512CBD
:1018A000522C582CFF30B6070318B70AFF30B70781
:1018B0003603FF3A0A128A1545250A128A15831241
:1018C00003133D0883160313AE00831203133E086F
:1018D00083160313AF00831203133F088316031309
:1018E000B000380883120313AD00831603133908C0
:1018F00083120313AE00831603133A0883120313F3
:10190000AF00831603132E0883120313B00083164F
:1019100003132F0883120313B10083160313300837
:1019200083120313B2000A168A1134260A128A158A
:10193000831203132D0883160313AE0083120313BF
:101940002E0883160313AF00831203132F08831688
:101950000313B0002E08F3002F08F4003008F50040
:101960000030F6008030F7003F30F8000A168A1584
:1019700051260A128A150318BE2CBF2CC82CFF3022
:1019800083160313B6070318B70AFF30B707E72C0F
:10199000831603132E08F3002F08F4003008F50017
:1019A0000030F6002030F7004130F8000A168A15A2
:1019B00051260A128A15031CDE2CDF2CE72C01307D
:1019C00083160313B6070318B70A0030B707831648
:1019D00003133D08803AFF0080307F02031DF22C84
:1019E0000D303C020318F52CF62C2F2D8316031313
:1019F0003C080A128A1138260A128A158312031328
:101A00003D08CD003E08CE003F08CF0083160313EB
:101A1000380883120313D000831603133908831286
:101A20000313D100831603133A0883120313D20061
:101A30000A128A1555210A128A15831203134D08BA
:101A400083160313B800831203134E08831603137F
:101A5000B900831203134F0883160313BA008316C9
:101A600003133708803AFF0080307F02031D3A2DB0
:101A70000A30360203183F2D0A128A1121280A1251
:101A80008A1158280A128A11332E83120313C500B3
:101A9000C51F4B2D4C2DA72EC509C50A4508803AF8
:101AA000123E031C542D552D132E0330C000400848
:101AB000A9004508F500F601F51BF6036430F300B4
:101AC0000030F4000A168A15A7270A128A1574082E
:101AD00083120313A3007308A2000A30A000003091
:101AE000A1000A168A1124220A128A1583120313EE
:101AF00020080A168A151D250A128A15433E8400FD
:101B00000A168A110A200A128A1583120313AD00DD
:101B10000A168A110A200A128A15AE000A168A11BC
:101B20000A200A128A15AF000330C1004108A9003B
:101B30004508A200A301A21BA3036430A00000304B
:101B4000A1000A168A1124220A128A15831203138D
:101B500020080A168A151D250A128A155E3E840081
:101B60000A168A110A200A128A1583120313B0007A
:101B70000A168A110A200A128A15B1000A168A1159
:101B80000A200A128A15B2000A168A1134260A128D
:101B90008A15831203132D08C2002E08C3002F08D4
:101BA000C4000330C0004008A9004508F500F60154
:101BB000F51BF6030A30F3000030F4000A168A150C
:101BC000A7270A128A1573080A168A151D250A12F4
:101BD0008A15283E84000A168A110A200A128A15DC
:101BE00083120313AD000A168A110A200A128A15FD
:101BF000AE000A168A110A200A128A15AF0042089E
:101C0000B0004308B1004408B2000A168A11342615
:101C10000A128A15831203132D08BD002E08BE0078
:101C20002F08BF00FF2F4508803A753E031C192E70
:101C30001A2E862E0330C0004008A9004508F50082
:101C4000F601F51BF6030A30F3000030F4000A1623
:101C50008A15A7270A128A1573080A168A151D25E0
:101C60000A128A15283E84000A168A110A200A12CE
:101C70008A1583120313AD000A168A110A200A126C
:101C80008A15AE000A168A110A200A128A15AF00B8
:101C90000330C1004108A9004508A200A301A21B0E
:101CA000A3030A30A0000030A1000A168A112422E2
:101CB0000A128A158312031320080A168A151D2595
:101CC0000A128A15433E84000A168A110A200A1253
:101CD0008A1583120313B0000A168A110A200A1209
:101CE0008A15B1000A168A110A200A128A15B20052
:101CF0000A168A1134260A128A15831203132D0834
:101D0000BD002E08BE002F08BF00FF2F0330C0000B
:101D10004008A90045080A168A151D250A128A15C9
:101D2000283E84000A168A110A200A128A15831294
:101D30000313BD000A168A110A200A128A15BE0072
:101D40000A168A110A200A128A15BF00FF2F4508B9
:101D5000803A123E031CAD2EAE2E6C2F0330C00015
:101D60004008A9004508F500F601F51BF6036430AC
:101D7000F3000030F4000A168A15A7270A128A1504
:101D8000740883120313A3007308A2000A30A00092
:101D90000030A1000A168A1124220A128A15831221
:101DA000031320080A168A151D250A128A151C3EDF
:101DB00084000A168A110A200A128A158312031354
:101DC000AD000A168A110A200A128A15AE000A16F8
:101DD0008A110A200A128A15AF000330C100410897
:101DE000A9004508A200A301A21BA3036430A00020
:101DF0000030A1000A168A1124220A128A158312C1
:101E0000031320080A168A151D250A128A15373E63
:101E100084000A168A110A200A128A1583120313F3
:101E2000B0000A168A110A200A128A15B1000A1691
:101E30008A110A200A128A15B2000A168A1134265B
:101E40000A128A15831203132D08C2002E08C3003C
:101E50002F08C4000330C0004008A9004508F50061
:101E6000F601F51BF6030A30F3000030F4000A1601
:101E70008A15A7270A128A1573080A168A151D25BE
:101E80000A128A15013E84000A168A110A200A12D3
:101E90008A1583120313AD000A168A110A200A124A
:101EA0008A15AE000A168A110A200A128A15AF0096
:101EB0004208B0004308B1004408B2000A168A1173
:101EC00034260A128A15831203132D08BD002E082A
:101ED000BE002F08BF00FF2F4508803A753E031C47
:101EE000722F732FDF2F0330C0004008A900450870
:101EF000F500F601F51BF6030A30F3000030F4009C
:101F00000A168A15A7270A128A1573080A168A154F
:101F10001D250A128A15013E84000A168A110A201C
:101F20000A128A1583120313AD000A168A110A20B9
:101F30000A128A15AE000A168A110A200A128A1598
:101F4000AF000330C1004108A9004508A200A30169
:101F5000A21BA3030A30A0000030A1000A168A11B8
:101F600024220A128A158312031320080A168A15DE
:101F70001D250A128A151C3E84000A168A110A20A1
:101F80000A128A1583120313B0000A168A110A2056
:101F90000A128A15B1000A168A110A200A128A1535
:101FA000B2000A168A1134260A128A158312031304
:101FB0002D08BD002E08BE002F08BF00FF2F0330E4
:101FC000C0004008A90045080A168A151D250A12F6
:101FD0008A15013E84000A168A110A200A128A15FF
:101FE00083120313BD000A168A110A200A128A15E9
:101FF000BE000A168A110A200A128A15BF000800BC
:10200000FF1B0A2883137F1883170008840A03190B
:10201000FF0A080010308A000408840A820700348E
:10202000003480343F340034203441340034C83428
:10203000423400347A34443440341C34463450340E
:10204000C3344734243474344934973418344B340B
:10205000BC34BE344C346B346E344E3403341534DB
:1020600050347934AD346034F3344934713400344D
:1020700080343F34CD34CC343D34D73423343C34F5
:10208000123483343A34B734D1343834C634273434
:102090003734383486343534C034D6343334CC34E1
:1020A0002B343234703489343034E734DB342E341A
:1020B000E5343C341E344234A2340D34013400344F
:1020C000003400340A340034003400346434003402
:1020D00000340034E834033400340034103427343E
:1020E00000340034A03486340134003440344234A7
:1020F0000F34003480349634983400340034E134A2
:10210000F53405340034CA349A343B342534313440
:102110002E343234663420342034203425343134A3
:102120002E34323466342034203420342534643460
:1021300000345334313420342034203420345334A8
:102140003234203420342034203443344F344E345D
:102150005434003453343134203420342034533454
:10216000323420342034203443344F344E34543409
:0421700020340034E3
:10217A00730874040319C228C328F228F801F80A5C
:10218A00D12801300310F30DF40DFF3E031DC728BB
:10219A000130F7007708F807F41FD428D528C62895
:1021AA0074087602031DDB2873087502031CDE28F7
:1021BA00DF28E5287308F5027408031CF603F60203
:1021CA0001300310F40CF30CFF3E031DE628013026
:1021DA00F802031DF128F228D5287608F4007508BC
:1021EA00F30008000030F300F4000A168A110524EF
:1021FA000A168A11831203131F179F131F14A5307F
:10220A0083120313CD00CD0B08290B298312031364
:10221A009F1453290030BD007F30BE004330BF00F9
:10222A000030AD00A030AE004030AF001E08CD0037
:10223A00CE014D08A3004E08A4000A128A150020F8
:10224A000A168A11831203132308B0002408B10066
:10225A002508B2000A168A1134260A168A11831230
:10226A0003132D08C0002E08C1002F08C2000A1649
:10227A008A1172250A168A11831203133D088316DE
:10228A000313C200831203133E0883160313C30009
:10229A00831203133F0883160313C40083129F1883
:1022AA00572958290F2908000130F3000030F4009B
:1022BA000A168A1105240A168A11831203131F1794
:1022CA009F131F14A53083120313CD00CD0B6B2966
:1022DA006E29831203139F14B6290030BD007F3084
:1022EA00BE004330BF000030AD00A030AE00403029
:1022FA00AF001E08CD00CE014D08A3004E08A40071
:10230A000A128A1500200A168A1183120313230857
:10231A00B0002408B1002508B2000A168A11342632
:10232A000A168A11831203132D08C0002E08C10051
:10233A002F08C2000A168A1172250A168A118312F8
:10234A0003133D0883160313BF00831203133E08C9
:10235A0083160313C000831203133F088316031363
:10236A00C10083129F18BA29BB29722908000030BC
:10237A00F7000030F6000030F5000030F400831258
:10238A00031323082204210420040319CD29CE298A
:10239A001B2AF801F80ADE290130F3000310A00D08
:1023AA00A10DA20DA30DF30BD3290130F30073087D
:1023BA00F807A31FE129E229D1290130F30003100C
:1023CA00F40DF50DF60DF70DF30BE429230827029A
:1023DA00031DF92922082602031DF92921082502CD
:1023EA00031DF92920082402031CFC29FD290C2AB3
:1023FA002008A4022108031C210FA5022208031C9D
:10240A00220FA6022308031C230FA702741401300B
:10241A000310A30CA20CA10CA00CFF3E031D0D2A55
:10242A000130F802031D1A2A1B2AE2297708A300A1
:10243A007608A2007508A1007408A000080083129B
:10244A000313A601A11F2A2A2B2A322AA009A109AD
:10245A00A00A0319A10AA601A60AA31F352A362A29
:10246A003F2AA209A309A20A0319A30A0130A40058
:10247A002408A606A701A801200821040319462A50
:10248A00472A7E2AA501A50A552A01300310A00D64
:10249A00A10DFF3E031D4B2A0130A4002408A50705
:1024AA00A11F582A592A4A2A01300310A70DA80D3C
:1024BA00FF3E031D5A2A21082302031D662A20080B
:1024CA002202031C692A6A2A712A2008A202210808
:1024DA00031CA303A302271401300310A10CA00CB0
:1024EA00FF3E031D722A0130A502031D7D2A7E2AA2
:1024FA00592A26080319822A832A882AA709A80999
:10250A00A70A0319A80A2808A1002708A00008009A
:10251A003430F800F130F700F70B912AF80B912AC2
:10252A00962A30300A168A1534250A168A110D3071
:10253A00F800FB30F700F70BA02AF80BA02AA52A0F
:10254A0030300A168A1534250A168A114230F700E5
:10255A00F70BAD2A000030300A168A1534250A1600
:10256A008A114230F700F70BB82A000038300A16F1
:10257A008A1534250A168A112730F700F70BC32A61
:10258A00C62A08300A168A1534250A168A112730EF
:10259A00F700F70BCE2AD12A01300A168A153425FC
:1025AA000A168A110D30F800FB30F700F70BDB2A08
:1025BA00F80BDB2AE02A06300A168A1534250A1691
:1025CA008A112730F700F70BE82AEB2A0C300A1693
:1025DA008A1534250A168A112730F700F70BF32AD1
:1025EA00F62A080076080319FB2AFC2A032B750829
:1025FA0074047304031D022B032B182B0030F30001
:10260A000030F4000030F500782B013083120313F8
:10261A00A0002008F60701300310F50CF40CF30CA7
:10262A00FF3E031D112BFE307505031D1D2B1E2BAE
:10263A000A2B372B013083120313A0002008F60758
:10264A000130F307003003180130F4070030031893
:10265A000130F50701300310F50CF40CF30CFF3EC2
:10266A00031D302BFF307505031D3C2B3D2B1F2B03
:10267A00482B0130F60201300310F30DF40DF50D6D
:10268A00FF3E031D412BF41B4B2B4C2B522B0230CC
:10269A0076020318512B522B3E2B7618552B562BAC
:1026AA005C2BFF30F3057F30F405FF30F50503108E
:1026BA00F60C760883120313A000A101A2011030C0
:1026CA000310A00DA10DA20DFF3E031D652B2008CE
:1026DA00F3042108F4042208F50477080319762B79
:1026EA00772B782BF5170800831203134608CA00C4
:1026FA004708CB004808CC0003104B0D4C0DCD0009
:10270A004D08D3005308031D8B2B8C2B952B0030BF
:10271A00C9000030C8000030C7000030C600042CD1
:10272A004608CA004708CB004808CC0017300310F7
:10273A00CC0CCB0CCA0CFF3E031D9C2B4A08CD00C7
:10274A004D08CE00C717FF30C605FF30C705003059
:10275A00C8054608CF004708D0004808D100D20172
:10276A008E30D302D31FBA2BBB2BD52B5308803AFA
:10277A008F3E0318C12BC22BC32B8C2B01300310A5
:10278A00D20CD10CD00CCF0CFF3E031DC42B013050
:10279A00CA004A08D307031DD32BD42BC32BEC2B17
:1027AA0018305302031CDA2BDB2BE72B8C2B01305E
:1027BA00CA000310CF0DD00DD10DD20DCA0BDE2BDE
:1027CA000130D3025308031DEB2BEC2BDC2B4E08F4
:1027DA000319F02BF12BFC2BCF09D009D109D2090F
:1027EA00CF0A0319D00A0319D10A0319D20A5208C7
:1027FA00C9005108C8005008C7004F08C6000800A1
:10280A007D2C831203139F121F129F111F11B42CC8
:10281A00831203139F121F129F111F15B42C8312C8
:10282A0003139F121F129F151F11B42C8312031337
:10283A009F121F129F151F15B42C831203139F1288
:10284A001F169F111F11B42C831203139F121F16F8
:10285A009F111F15B42C831203139F121F169F1565
:10286A001F11B42C831203139F121F169F151F15D5
:10287A00B42C831203139F161F129F111F11B42C1D
:10288A00831203139F161F129F111F15B42C831254
:10289A0003139F161F129F151F11B42C83120313C3
:1028AA009F161F129F151F15B42C831203139F1610
:1028BA001F169F111F11B42C831203139F161F1684
:1028CA009F111F15B42C831203139F161F169F15F1
:1028DA001F11B42C831203139F161F169F151F1561
:1028EA00B42C831203139F121F129F111F11B42CB1
:1028FA007408003A0319822C762C7308003A0319DB
:10290A00062C013A03190D2C033A0319142C013A27
:10291A0003191B2C073A0319222C013A0319292CF3
:10292A00033A0319302C013A0319372C0F3A0319C9
:10293A003E2C013A0319452C033A03194C2C013A4F
:10294A000319532C073A03195A2C013A0319612C1B
:10295A00033A0319682C013A03196F2C762C0800E4
:10296A00730883120313A0007408A1007508A2005B
:10297A000310210D220DA3002308A9002908031D15
:10298A00C72CC82CD12C0030F6000030F5000030DE
:10299A00F4000030F300712D7608A0007708A1003A
:1029AA007808A2000310210D220DA3002308A80015
:1029BA002808031DE12CE22CE32CC82CF417FF3065
:1029CA00F305FF30F4050030F505F717FF30F6057B
:1029DA00FF30F7050030F8050030A7000030A600E8
:1029EA000030A5000030A4007F30A90298302807E3
:1029FA00A0002008A9021830A0002008A800013071
:102A0A00A0000310A40DA50DA60DA70DA00B062D61
:102A1A0078087502031D172D77087402031D172DF8
:102A2A0076087302031C1A2D1B2D262D7608F30235
:102A3A007708031C770FF4027808031C780AF5025A
:102A4A00241401300310F30DF40DF50DFF3E031DA0
:102A5A00272D0130A802031D332D342D042DA91F63
:102A6A00372D382D522D2908803A973E03183E2DCE
:102A7A003F2D402DC82C01300310A70CA60CA50C25
:102A8A00A40CFF3E031D412D0130A0002008A90718
:102A9A00031D502D512D402D692D18302902031C7C
:102AAA00572D582D642DC82C0130A0000310A40DF9
:102ABA00A50DA60DA70DA00B5B2D0130A9022908B3
:102ACA00031D682D692D592D2708F6002608F500E3
:102ADA002508F4002408F3000800831203134008B1
:102AEA00C3004108C4004208C5000310440D450D47
:102AFA00C6004608CB004B08031D842D852D8C2D5E
:102B0A000030BD000030BE000030BF00332E3D084B
:102B1A00C3003E08C4003F08C5000310440D450D1C
:102B2A00C6004608CC004C08031D9C2D9D2DA42DE3
:102B3A000030BD000030BE000030BF00332E003030
:102B4A00C8000030C9000030CA0089304C07C300F1
:102B5A004308CB024008C3004108C4004208C5002C
:102B6A0010300310C50CC40CC30CFF3E031DB62D58
:102B7A004308C6004608CC003D08C3003E08C4000E
:102B8A003F08C50010300310C50CC40CC30CFF3E2F
:102B9A00031DC82D4308C6004608CC068030C30072
:102BAA004308CC05C117FF30C005FF30C10500300E
:102BBA00C205BE17FF30BD05FF30BE050030BF0598
:102BCA001830C3004308C70001300310C80DC90DEF
:102BDA00CA0DFF3E031DEA2D3F084202031DFB2DCD
:102BEA003E084102031DFB2D3D084002031CFE2D39
:102BFA00FF2D0A2E3D08C0023E08031C3E0FC102EB
:102C0A003F08031C3F0AC202481401300310C00DDA
:102C1A00C10DC20DFF3E031D0B2E0130C702031D5D
:102C2A00172E182EE92D4808F3004908F4004A081F
:102C3A00F5004B08C3004308F6004C08C4004408DA
:102C4A00F7000A168A11F7220A168A1173088312E4
:102C5A000313BD007408BE007508BF000800831284
:102C6A0003132D08B3002E08B4002F08B500031073
:102C7A00340D350DB6003608B7003708031D462E49
:102C8A00472E4E2E0030AD000030AE000030AF00AF
:102C9A00182F3008B3003108B4003208B500031009
:102CAA00340D350DB6003608BC003C08031D5E2EF7
:102CBA005F2E662E0030AD000030AE000030AF004F
:102CCA00182F3C087B3EB3003308B7072D08B30022
:102CDA002E08B4002F08B50010300310B50CB40C40
:102CEA00B30CFF3E031D722E3308B6003608BC0033
:102CFA003008B3003108B4003208B50010300310B0
:102D0A00B50CB40CB30CFF3E031D842E3308B60079
:102D1A003608BC068030B3003308BC05AE17B117BD
:102D2A00FF30B005FF30B1050030B2050030B80001
:102D3A000030B9000030BA000730B3003308BB00D6
:102D4A002D1CA82EA92EB92E3008B8073108031158
:102D5A000318310A0319B22EB907320803110318EE
:102D6A00320A0319B92EBA0701300310AF0CAE0CA0
:102D7A00AD0CFF3E031DBA2E01300310B00DB10D8C
:102D8A00B20DFF3E031DC22E0130BB02031DCE2E23
:102D9A00CF2EA52E0930B3003308BB002D1CD62E2A
:102DAA00D72EE72E3008B807310803110318310A65
:102DBA000319E02EB907320803110318320A03195E
:102DCA00E72EBA0701300310AF0CAE0CAD0CFF3E74
:102DDA00031DE82E01300310BA0CB90CB80CFF3EE3
:102DEA00031DF02E0130BB02031DFC2EFD2ED32E37
:102DFA003808F3003908F4003A08F5003708B30038
:102E0A003308F6003C08B4003408F7000A168A11A1
:102E1A00F7220A168A11730883120313AD00740885
:102E2A00AE007508AF0008000A168A15FA240A16B9
:102E3A008A110A168A15AC240A168A110A168A15E4
:102E4A00B0240A168A110A168A15CD240A168A117E
:102E5A000A168A15BD240A168A110A168A118D22A3
:102E6A000A168A110A168A15ED240A168A110A16F2
:102E7A008A15ED240A168A11F701F70A01300A1693
:102E8A008A15A0250A168A119B30F6008030F700B1
:102E9A000A168A15C7260A168A110A168A11F720EF
:102EAA000A168A110A168A1159210A168A117730C6
:102EBA0083120313E9006908E0008316031342082A
:102ECA0083120313E10083160313430883120313C7
:102EDA00E20083160313440883120313E3008316E4
:102EEA0003133F0883120313E400831603134008F5
:102EFA0083120313E5008316031341088312031395
:102F0A00E6006C08EA00EB016A08E7006B08E800D3
:102F1A00C5300A128A158B220A168A11F701F70A96
:102F2A0002300A168A15A0250A168A11C530F6003B
:102F3A000030F7000A168A15C7260A168A118A303F
:102F4A00F4008030F5000A168A15C6250A168A1179
:102F5A000D300A168A15E1240A168A110A300A1651
:102F6A008A15E1240A168A11C530F4000030F500EA
:102F7A000A168A15C6250A168A110D300A168A15E6
:102F8A00E1240A168A110A300A168A15E1240A1659
:102F9A008A11831203138C1ED32FD42FEE2F1A08F3
:102FAA00E9006908ED002B306D06031DDD2FDE2FC9
:102FBA00E32F6C08013EE9006908EC002D306D062C
:102FCA00031DE82FE92FEE2F6C08FF3EE900690880
:102FDA00EC00063083120313EB001330EA00AD3025
:102FEA00E900E90BF62FEA0BF62FEB0BF62F3C2F35
:062FFA000A128A110C28E6
:10395800831603139F0108000C3083160313990084
:103968000800831203138C1EBA2CBB2CB52C1A0822
:1039780008008312031398171813981218169A013F
:10398800080064008001840A040603190034040650
:10399800C62C8316031398131813981618121811A7
:1039A8009810181008007508740473040319DD2CA6
:1039B800DE2CE02C8030F5060800F3008316031394
:1039C800981CE72CE82CE22C730883120313990047
:1039D800080000300A168A1534250A168A1501309F
:1039E8000A168A1534250A168A1508008316031341
:1039F8008801890103308500033083160317880086
:103A08008901831203138801890187010800F400E2
:103A1800F3013A3074020318122D132D1B2D303088
:103A28007402031C182D192D1B2DF301F30A730CB6
:103A3800080083120313AC00AB012C1C242D252D88
:103A4800292D2908AA002A08AB070310A90D03107D
:103A5800AC0C2C08031D312D322D212D2B0808000C
:103A6800F60083120313091076080A168A158926A8
:103A78000A168A158312031389140330F400F40B11
:103A8800432D8312031389100330F400F40B4A2DDD
:103A98000630F5003030F400F40B502DF50B502DA6
:103AA80000000800831203135C085B045A0403191E
:103AB8005E2D5F2D612D8030DC065D08CD005E082F
:103AC800CE005F08CF005A08D0005B08D1005C0820
:103AD800D2000A128A1555210A168A158312031371
:103AE8004D08DA004E08DB004F08DC000800F7013B
:103AF800F801731C802D812D872D7508F707031891
:103B0800F80A7608F80701300310F50DF60DFF3EA8
:103B1800031D882D01300310F40CF30CFF3E031D28
:103B28008F2D73087404031D9A2D9B2D7D2D780805
:103B3800F4007708F300080083120313A0002003A1
:103B4800031DA72DA82DB42D7708803EF80078080E
:103B5800A10021080A168A1534250A168A15C52DCA
:103B680002302006031DB92DBA2DC52D7708C03E99
:103B7800F8007808A10021080A168A1534250A16C3
:103B88008A150800F701DD2D770874078400750889
:103B98000318750AFF000A168A1100200A168A15EA
:103BA8000A168A15E1240A168A150130F6007608E5
:103BB800F70777087407840075080318750A8312D5
:103BC8000313FF000A168A1100200A168A15003A04
:103BD800031DEF2DF02DC82D0800831203138C1E32
:103BE800F62DF72D172E8C120A168A15B5240A16EB
:103BF8008A15F0007008FA002B307A06031D052E8E
:103C0800062E0D2E0130F000700883120313EC0706
:103C1800172E2D307A06031D122E132E172E013063
:103C280083120313EC0272088A00710E8300FE0EE1
:103C38007E0E09008E30F8007808F900302E013029
:103C48000310A60CA50CA40CA30CFF3E031D242EE8
:103C58000130F8007808F907FF30831203132605AE
:103C6800031D372E382E232E2308F3002408F400D2
:103C78002508F5007908F8007808F600F7010A1613
:103C88008A11F7220A168A15730883120313A300F0
:103C98007408A4007508A5000800F51F542E552EB9
:103CA800622E7308003CF3007408031C740F003C78
:103CB800F4007508031C750F803CF500F81F652E8D
:103CC800662E732E7608003CF6007708031C770FE3
:103CD800003CF7007808031C780F803CF80080301F
:103CE800F5068030F80678087502031D812E7708DE
:103CF8007402031D812E760873020318842E852E04
:103D0800872E0310882E03140800F300731C8D2ED1
:103D18008E2E922E831203130814952E83120313EA
:103D28000810F31C982E992E9B2E88149C2E881010
:103D3800731D9F2EA02EA22E0815A32E0811F31D69
:103D4800A62EA72EA92E8815AA2E8811731EAD2E71
:103D5800AE2EB02E0816B12E0812F31EB42EB52EB4
:103D6800B72E8816B82E8812731FBB2EBC2EBE2EF7
:103D78000817BF2E0813F31FC22EC32EC52E88178F
:103D8800C62E88130800F801F901EC2E780876078A
:103D9800A1007708A0000318A00AF81FD42EA003DA
:103DA800831203132008A2002208FF0021088400C0
:103DB8000A168A1100200A168A150A128A11E127A2
:103DC8000A168A150130F8070318F90A0030F907AE
:103DD8007808760783120313A1007708A000031858
:103DE800A00AF81FF82EA003831203132008A200CC
:103DF8002208FF00210884000A168A1100200A16EA
:103E08008A15003A031D092F0A2FCA2E08008312AB
:103E18000313A401A501200821040319142F152F49
:103E28004C2FA601A60A232F01300310A00DA10DC7
:103E3800FF3E031D192F0130F9007908A607A11FBD
:103E4800262F272F182F01300310A40DA50DFF3E94
:103E5800031D282F21082302031D342F20082202C6
:103E6800031C372F382F3F2F2008A2022108031CDC
:103E7800A303A302241401300310A10CA00CFF3EDD
:103E8800031D402F0130A602031D4B2F4C2F272F57
:103E98002508A1002408A0000800831203132B089A
:103EA8002A042904280403195A2F5B2F9E2FB001D6
:103EB800B00A6B2F0130F9000310A80DA90DAA0D47
:103EC800AB0DF90B602F0130F9007908B007AB1F73
:103ED8006E2F6F2F5E2F2B082F02031D7D2F2A08B0
:103EE8002E02031D7D2F29082D02031D7D2F280872
:103EF8002C02031C802F812F8F2F2808AC02290841
:103F0800031C290FAD022A08031C2A0FAE022B0836
:103F1800031C2B0FAF0201300310AB0CAA0CA90C29
:103F2800A80CFF3E031D902F0130B002031D9D2FEA
:103F38009E2F6F2F2F08AB002E08AA002D08A9006E
:103F48002C08A8000800F901F61FAB2FAC2FB32FDF
:103F5800F509F609F50A0319F60AF901F90AF41F31
:103F6800B62FB72FBC2FF309F409F30A0319F40A83
:103F7800730874040319C12FC22FF12FF801F80A2E
:103F8800D02F01300310F30DF40DFF3E031DC62F93
:103F98000130F7007708F807F41FD32FD42FC52F67
:103FA80074087602031DDA2F73087502031CDD2FCF
:103FB800DE2FE42F7308F5027408031CF603F602DB
:103FC80001300310F40CF30CFF3E031DE52F013004
:103FD800F802031DF02FF12FD42F79080319F52FBC
:103FE800F62FFB2FF509F609F50A0319F60A7608E4
:083FF800F4007508F300080055
:04400E00D123FF3F7C
:00000001FF
