:020000040000FA
:100000000A128A11F32F7308720471047004031921
:100010000A280B280D288030F30608003430F5003C
:10002000F130F400F40B1228F50B122817283030A9
:100030000A168A158C200A128A110D30F500FB3041
:10004000F400F40B2128F50B2128262830300A165D
:100050008A158C200A128A114230F400F40B2E28E3
:10006000000030300A168A158C200A128A1142309C
:10007000F400F40B3928000038300A168A158C2059
:100080000A128A112730F400F40B4428472808305C
:100090000A168A158C200A128A112730F400F40BF4
:1000A0004F28522801300A168A158C200A128A110C
:1000B0000D30F500FB30F400F40B5C28F50B5C28E8
:1000C000612806300A168A158C200A128A112730F8
:1000D000F400F40B69286C280C300A168A158C2061
:1000E0000A128A112730F400F40B742877280800CC
:1000F00083160313C500A130A9002908B200DC2F24
:100100002530480603198528862892284808A90022
:10011000450884002908831380000130A9002908BC
:10012000C507DC2FB901BA01B701B8012008840066
:100130000A128A150A200A128A110A168A11032045
:100140000A128A11031CA528A628E6288316031381
:10015000B901BA010A30F0000030F1008316031330
:100160003A08F3003908F2000A168A15F6200A1236
:100170008A11710883160313BA007008B9002008A9
:1001800084000A128A150A200A128A11D03EA90098
:10019000FF3003180030AA002908B9070318BA0A6B
:1001A0002A08BA070130A9002908A00720088400FE
:1001B0000A128A150A200A128A110A168A110320C5
:1001C0000A128A110318E528E628AA2883160313C1
:1001D000200884000A128A150A200A128A112E3A6F
:1001E000031DF328F428392938170130A9002908FC
:1001F000A007C601C70128290A30F0000030F1002D
:10020000831603134708F3004608F2000A168A15FE
:10021000F6200A128A11710883160313C7007008AA
:10022000C600200884000A128A150A200A128A11C0
:10023000D03EA900FF3003180030AA002908C607E5
:100240000318C70A2A08C7070130A9002908A00710
:10025000200884000A128A150A200A128A110A1636
:100260008A1103200A128A11031837293829FC2819
:100270003F29C601C70138163F2938155B290130CF
:1002800083160313A007FF30200784000A128A1583
:100290000A200A128A11C800A900AA012A08003AF5
:1002A00003195329DC2F2908003A0319EE2F663A67
:1002B00003193D29DC2F00303705A9000730380528
:1002C000AA0029082A04031966296729192F381E4C
:1002D0006A296B296F290630C6000030C700320832
:1002E000840083130008C100840A0008C200840A45
:1002F0000008C300840A0008C4000430A9002908CB
:10030000B2074408F3004308F2004208F100410834
:10031000F0000030F7000030F6000030F50000304B
:10032000F4000A168A1537250A128A11031899292A
:100330009A29B729831603134408F3004308F200EF
:100340004208F1004108F0000A128A1103200A1243
:100350008A11730883160313C4007208C30071085E
:10036000C2007008C1000330B7040030B80483161F
:100370000313BF01C0014408F3004308F200420820
:10038000F1004108F0000030F7000030F6000030C6
:10039000F5000030F4000A168A156B220A128A1141
:1003A0000318D329D429C42A031083160313430D39
:1003B000440D823EBF00FF3003180030C000FF3004
:1003C000BF070318C00AFF30C0070330F000003039
:1003D000F1004008F3003F08F2000A168A15F620E3
:1003E0000A128A11710883160313C0007008BF0037
:1003F0000A30F7000030F8004008FA003F08F90022
:100400000A128A15D7200A128A1178088316031354
:10041000C0007708BF00C01F0E2A0F2A152AFF3020
:10042000BF070318C00AFF30C0073F03FF3A0A1294
:100430008A1540210A128A11831203134108831678
:100440000313BE0083120313400883160313BD0079
:10045000831203133F0883160313BC008312031394
:100460003E0883160313BB00440883120313A7003E
:1004700083160313430883120313A6008316031382
:10048000420883120313A500831603134108831245
:100490000313A400831603133E0883120313AB0057
:1004A000831603133D0883120313AA008316031354
:1004B0003C0883120313A900831603133B0883121D
:1004C0000313A8000A128A159F240A128A118312A4
:1004D0000313270883160313BE0083120313260891
:1004E00083160313BD008312031325088316031319
:1004F000BC0083120313240883160313BB003E08B9
:10050000F3003D08F2003C08F1003B08F0003F30EA
:10051000F7008030F6000030F5000030F4000A16D5
:100520008A1537250A128A110318972A982AA12AB0
:10053000FF3083160313BF070318C00AFF30C0073C
:10054000C42A831603133E08F3003D08F2003C085A
:10055000F1003B08F0004130F7002030F600003099
:10056000F5000030F4000A168A1537250A128A11A0
:10057000031CBB2ABC2AC42A013083160313BF07FD
:100580000318C00A0030C007831603134708803AD7
:10059000FF0080307F02031DCF2A0D304602031872
:1005A000D22AD32A1A2B8316031346080A168A1155
:1005B0006D230A128A11831203134108D5004008E3
:1005C000D4003F08D3003E08D2008316031344082A
:1005D00083120313D90083160313430883120313F2
:1005E000D80083160313420883120313D70083161F
:1005F0000313410883120313D6000A168A117825C3
:100600000A128A1183120313550883160313C400B8
:1006100083120313540883160313C30083120313B6
:10062000530883160313C200831203135208831660
:100630000313C100831603134008803AFF00803083
:100640007F02031D252B0A303F020318282B292B7C
:100650007A2B831603134408F3004308F200420880
:10066000F1004108F0000030F7000030F6000030E3
:10067000F5000030F4000A168A156B220A128A115E
:100680000318432B442BEC2B8316031344088312CB
:100690000313D40083160313430883120313D300F8
:1006A00083160313420883120313D2008316031325
:1006B000410883120313D1000A168A15BB240A12BB
:1006C0008A11831203135408530452045104031D66
:1006D0006A2B6B2BEC2B831603134008803AFF0028
:1006E00080307F02031D762B02303F02031C792BE2
:1006F0007A2BEC2B831603133E08F3003D08F2001F
:100700003C08F1003B08F0004030F7008930F6006B
:100710007030F5005F30F4000A168A1537250A128A
:100720008A110318942B952B9E2BF73083160313F5
:10073000BF070318C00AFF30C007A62BF830831686
:100740000313BF070318C00AFF30C0073F080A128F
:100750008A1540210A128A11831203134108831655
:100760000313BE0083120313400883160313BD0056
:10077000831203133F0883160313BC008312031371
:100780003E0883160313BB004408F3004308F2003D
:100790004208F1004108F0003E08F7003D08F6006D
:1007A0003C08F5003B08F4000A168A11D2200A1210
:1007B0008A11730883160313B6007208B500710816
:1007C000B4007008B3000030C4000030C300003033
:1007D000C2000030C100702C83160313440883123A
:1007E0000313D40083160313430883120313D300A7
:1007F00083160313420883120313D20083160313D4
:10080000410883120313D1000A168A15BB240A1269
:100810008A1183120313540883160313B60083123C
:100820000313530883160313B500831203135208EE
:1008300083160313B40083120313510883160313A2
:10084000B3003608F3003508F2003408F10033082D
:10085000F00000300A168A1589260A128A117308D8
:1008600083120313E9007208E8007108E7007008BA
:10087000E60083160313440883120313ED00831666
:100880000313430883120313EC0083160313420877
:1008900083120313EB00831603134108831203131F
:1008A000EA000A168A15D2200A128A11831203134B
:1008B000690883160313C4008312031368088316A0
:1008C0000313C30083120313670883160313C200C4
:1008D00083120313660883160313C100BF01C0010E
:1008E000C801C80A4808A90001300310A90DFF3E3D
:1008F000031D752C0310290D693E84000A128A1508
:100900000A200A128A11AA000A128A150A200A125B
:100910008A11AB000A128A150A200A128A11AC0049
:100920000A128A150A200A128A11AD002D08360211
:10093000031DA42C2C083502031DA42C2B08340203
:10094000031DA42C2A0833020318A72CA82CA92CB9
:10095000B32C0130A9002908C8070A304806031D36
:10096000B22CB32C722C48084607A900470803187C
:10097000470AAA003F082907AB0040080318400AAD
:100980002A07AC002B08B9022C08031CBA03BA02D0
:10099000460847040319CD2CCE2CD42CFF30B907C0
:1009A0000318BA0AFF30BA0703303705A900003030
:1009B0003805AA0029082A040319DF2CE02CF52C9D
:1009C000FF30B9070318BA0AFF30BA07F52C2030F8
:1009D00083160313A90045088400290883138000A7
:1009E0000130A9002908C507E02C3A08803AFF0029
:1009F00080307F02031DFE2C013039020318012DC7
:100A0000022DE72C0330831603133705A9000030AD
:100A10003805AA0029082A0403190F2D102D822D4C
:100A20002D30A90045088400290883138000013077
:100A3000A9002908C507822D4808A9000130031024
:100A4000A90DFF3E031D1F2D0310290D693E8400D3
:100A50000A128A150A200A128A11F0000A128A154F
:100A60000A200A128A11F1000A128A150A200A12B3
:100A70008A11F2000A128A150A200A128A11F3005A
:100A80003608F7003508F6003408F5003308F4009E
:100A90000A168A1566230A128A117308831603132D
:100AA000BE007208BD007108BC007008BB000030B9
:100AB000F3000030F2000030F1000A30F0003E0890
:100AC000F7003D08F6003C08F5003B08F4000A1664
:100AD0008A15B9220A128A11730883160313BE00FD
:100AE0007208BD007108BC007008BB003B08303EB6
:100AF000A900450884002908831380000130A9005B
:100B00002908C5070130C802480A031D882D892D10
:100B10001C2D9D2D303083160313A9004508840039
:100B20002908831380000130A9002908C507FF3078
:100B3000BF070318C00AFF30C0074008803AFF0013
:100B400080307F02031DA62D01303F020318A92D1E
:100B5000AA2D8A2D831603134708803AFF008030A0
:100B60007F02031DB52D09304602031CB82DB92D97
:100B7000C02D083083160313A9002908C800C62D0C
:100B8000831603134608A9002908C8004808A900CD
:100B9000AA012908C6022A08031CC703C70248087D
:100BA0000319D32DD42DDF2D2E30A9004508840044
:100BB0002908831380000130A9002908C5074808C7
:100BC0000A128A1540210A128A118312031341085E
:100BD00083160313B1008312031340088316031313
:100BE000B000831203133F0883160313AF00831270
:100BF00003133E0883160313AE0031088312031358
:100C0000AB0083160313300883120313AA00831664
:100C100003132F0883120313A900831603132E084E
:100C200083120313A80083160313440883120313CB
:100C3000A70083160313430883120313A600831629
:100C40000313420883120313A500831603134108FC
:100C500083120313A4000A128A159F240A128A1110
:100C6000831203132708D4002608D3002508D200D6
:100C70002408D1000A168A15BB240A128A1183128D
:100C80000313540883160313B60083120313530887
:100C900083160313B500831203135208831603133C
:100CA000B40083120313510883160313B300F92E03
:100CB0004808A90001300310A90DFF3E031D5B2E5B
:100CC0000310290D693E84000A128A150A200A12AF
:100CD0008A11F0000A128A150A200A128A11F100FC
:100CE0000A128A150A200A128A11F2000A128A15BB
:100CF0000A200A128A11F3003608F7003508F600B8
:100D00003408F5003308F4000A168A1566230A121F
:100D10008A11730883160313BE007208BD007108A0
:100D2000BC007008BB000030F3000030F20000305F
:100D3000F1000A30F0003E08F7003D08F6003C08DC
:100D4000F5003B08F4000A168A15B9220A128A1126
:100D5000730883160313BE007208BD007108BC003F
:100D60007008BB003B08303EA900450884002908F4
:100D7000831380000130A9002908C5074808A9008D
:100D800001300310A90DFF3E031DC12E0310290DD4
:100D9000693E84000A128A150A200A128A11F0009C
:100DA0000A128A150A200A128A11F1000A128A15FB
:100DB0000A200A128A11F2000A128A150A200A125F
:100DC0008A11F3003608F7003508F6003408F500FC
:100DD0003308F4000A168A15B9220A128A11730818
:100DE00083160313B6007208B5007108B4007008CA
:100DF000B3000130C802480A031DFF2E002F582EF1
:100E0000122F3030A9004508840029088313800080
:100E10000130A9002908C507FF30C6070318C70A13
:100E2000FF30C70746084704031D172F182F012F4F
:100E3000DC2F46084704031D1E2F1F2F2D2F3608B9
:100E4000350434043304031D262F272F2D2F0130A2
:100E5000C6070318C70A0030C7074708803A803C16
:100E6000031D342F460848020318372F382F3F2F11
:100E7000831603134608A9002908C800572F8316B4
:100E800003134708803AA90080302902031D4A2F26
:100E90004808460203184D2F4E2F572F8316031371
:100EA0004808A900AA012908C6002A08C700831615
:100EB000031339083A0403195E2F5F2F712F033093
:100EC0003705A90000303805AA0029082A040319AB
:100ED0006A2F6B2F712FFF30B9070318BA0AFF3042
:100EE000BA07381F742F752F902F4708803AA90032
:100EF0003A08803A2902031D7F2F39084602031859
:100F0000822F832F8C2F831603134608B9024708BC
:100F1000031CBA03BA02902F83160313B901BA0156
:100F20003A08803A803C031D972F3908480203187D
:100F30009A2F9B2FA72F831603134808A900AA01F5
:100F40002908B9022A08031CBA03BA02AB2F831678
:100F50000313B901BA0139083A040319B02FB12FAC
:100F6000C82F2030A9004508840029088313800079
:100F70000130A9002908C507FF30B9070318BA0ACC
:100F8000FF30BA0739083A04031DC72FC82FB12F05
:100F900003303705A90000303805AA0029082A04C3
:100FA0000319D32FD42FDC2F2D30A900450884003E
:100FB0002908831380008D280130A007FF30200707
:100FC00084000A128A150A200A128A11A900290827
:100FD000C8004808031DED2FEE2F80284508840027
:100FE0008313800108008313CC308400E4300A1698
:100FF0008A1533200A128A1183010A168A111528CC
:10100000FF1B0A2883137F1883170008840A03191B
:10101000FF0A080008308A000408840A82070034A6
:101020000034003480343F34003400342034413400
:1010300000340034C8344234003400347A34443448
:10104000003440341C34463400345034C334473404
:1010500000342434743449348034963418344B3496
:101060002034BC34BE344C3428346B346E344E34AB
:10107000F934023415345034EC347834AD346034FF
:10108000CA34F234493471340034003480343F348B
:10109000CD34CC34CC343D340A34D73423343C34CE
:1010A0006F34123483343A341734B734D13438348B
:1010B000AC34C53427343734BD3437348634353412
:1010C0009534BF34D63433347734CC342B34323483
:1010D0005F34703489343034FF34E634DB342E34FA
:1010E0000834E5343C341E3460344234A2340D34C8
:1010F00001340034003400340A3400340034003445
:101100006434003400340034E834033400340034F0
:101110001034273400340034A034863401340034D1
:10112000403442340F3400348034963498340034E0
:101130000034E134F53405340034CA349A343B3495
:1011400053343134203420342034203420342034BB
:1011500020342034533432342034203420342034AA
:10116000203420342034203443344F344E3454342B
:101170000034533431342034203420345334323466
:1011800020342034203443344F344E34543400342B
:10119000253431342E343234663420342034203433
:0C11A000253431342E34323466340034EF
:1011AE0083120313A101F81FDD28DE28E528F709B5
:1011BE00F809F70A0319F80AA101A10AFA1FE8288B
:1011CE00E928F228F909FA09F90A0319FA0A01308D
:1011DE00FB007B08A106A201A3017708780403197E
:1011EE00F928FA283129A001A00A08290130031094
:1011FE00F70DF80DFF3E031DFE280130FB007B08A6
:10120E00A007F81F0B290C29FD2801300310A20D91
:10121E00A30DFF3E031D0D2978087A02031D19291F
:10122E0077087902031C1C291D2924297708F90245
:10123E007808031CFA03FA02221401300310F80C8A
:10124E00F70CFF3E031D25290130A002031D302996
:10125E0031290C2921080319352936293B29A209E0
:10126E00A309A20A0319A30A2308F8002208F7000B
:10127E00080083120313D000D01F46294729F42AF1
:10128E00D009D00A5008803A123E031C4F2950292B
:10129E00382A0A30F7000030F8005008F200F30147
:1012AE00F21BF3036430F0000030F1000A168A15C9
:1012BE000D230A128A157108FA007008F9000A1235
:1012CE008A15D7200A128A15770883120313C200D3
:1012DE0001300310C20DFF3E031D70290310420D95
:1012EE00593E84000A128A150A200A128A15C30072
:1012FE000A128A150A200A128A15C4000A128A15C1
:10130E000A200A128A15C5000A128A150A200A1224
:10131E008A15C6004608A7004508A6004408A50081
:10132E004308A4006430F7000030F8005008F900BC
:10133E00FA01F91BFA030A128A15D7200A128A1526
:10134E00770883120313C70001300310C70DFF3E49
:10135E00031DAC290310470D7D3E84000A128A1529
:10136E000A200A128A15C8000A128A150A200A12C1
:10137E008A15C9000A128A150A200A128A15CA008D
:10138E000A128A150A200A128A15CB004B08AB00E6
:10139E004A08AA004908A9004808A8000A128A1596
:1013AE009F240A128A15831203132708CF002608DA
:1013BE00CE002508CD002408CC000A30F000003005
:1013CE00F1005008F200F301F21BF3030A168A151E
:1013DE000D230A128A15700883120313C2000130FE
:1013EE000310C20DFF3E031DF7290310420D353EBB
:1013FE0084000A128A150A200A128A15C3000A12DC
:10140E008A150A200A128A15C4000A128A150A20A1
:10141E000A128A15C5000A128A150A200A128A159E
:10142E00C6004608A7004508A6004408A5004308C4
:10143E00A4004F08AB004E08AA004D08A9004C08A6
:10144E00A8000A128A159F240A128A158312031302
:10145E002708C1002608C0002508BF002408BE00CA
:10146E009E2C5008803A753E031C3E2A3F2AC72AFE
:10147E000A30F0000030F1005008F200F301F21BC8
:10148E00F3030A168A150D230A128A1570088312A1
:10149E000313C20001300310C20DFF3E031D522A7A
:1014AE000310420D353E84000A128A150A200A12D4
:1014BE008A15C3000A128A150A200A128A15C40058
:1014CE000A128A150A200A128A15C5000A128A15EE
:1014DE000A200A128A15C6004608A7004508A6006B
:1014EE004408A5004308A4000A30F7000030F800B5
:1014FE005008F900FA01F91BFA030A128A15D720CF
:10150E000A128A15770883120313C70001300310DD
:10151E00C70DFF3E031D8E2A0310470D593E840052
:10152E000A128A150A200A128A15C8000A128A158A
:10153E000A200A128A15C9000A128A150A200A12EE
:10154E008A15CA000A128A150A200A128A15CB00B9
:10155E004B08AB004A08AA004908A9004808A80091
:10156E000A128A159F240A128A158312031327085A
:10157E00C1002608C0002508BF002408BE009E2C0E
:10158E005008C20001300310C20DFF3E031DCA2ACF
:10159E000310420D353E84000A128A150A200A12E3
:1015AE008A15C3000A128A150A200A128A15C40067
:1015BE000A128A150A200A128A15C5000A128A15FD
:1015CE000A200A128A15C6004608C1004508C00046
:1015DE004408BF004308BE009E2C5008803A123EBD
:1015EE00031CFA2AFB2AE32B0A30F7000030F8001E
:1015FE005008F200F301F21BF3036430F0000030E8
:10160E00F1000A168A150D230A128A157108FA00BE
:10161E007008F9000A128A15D7200A128A1577085F
:10162E0083120313C20001300310C20DFF3E031DCF
:10163E001B2B0310420D253E84000A128A150A2028
:10164E000A128A15C3000A128A150A200A128A156E
:10165E00C4000A128A150A200A128A15C5000A1237
:10166E008A150A200A128A15C6004608A7004508E0
:10167E00A6004408A5004308A4006430F70000301B
:10168E00F8005008F900FA01F91BFA030A128A153C
:10169E00D7200A128A15770883120313C700013068
:1016AE000310C70DFF3E031D572B0310470D493E78
:1016BE0084000A128A150A200A128A15C8000A1214
:1016CE008A150A200A128A15C9000A128A150A20DA
:1016DE000A128A15CA000A128A150A200A128A15D7
:1016EE00CB004B08AB004A08AA004908A9004808DD
:1016FE00A8000A128A159F240A128A158312031350
:10170E002708CF002608CE002508CD002408CC00DF
:10171E000A30F0000030F1005008F200F301F21B25
:10172E00F3030A168A150D230A128A1570088312FE
:10173E000313C20001300310C20DFF3E031DA22B86
:10174E000310420D013E84000A128A150A200A1265
:10175E008A15C3000A128A150A200A128A15C400B5
:10176E000A128A150A200A128A15C5000A128A154B
:10177E000A200A128A15C6004608A7004508A600C8
:10178E004408A5004308A4004F08AB004E08AA0069
:10179E004D08A9004C08A8000A128A159F240A12A7
:1017AE008A15831203132708C1002608C0002508D6
:1017BE00BF002408BE009E2C5008803A753E031CC4
:1017CE00E92BEA2B722C0A30F0000030F1005008A1
:1017DE00F200F301F21BF3030A168A150D230A1207
:1017EE008A15700883120313C20001300310C20D54
:1017FE00FF3E031DFD2B0310420D013E84000A1215
:10180E008A150A200A128A15C3000A128A150A209E
:10181E000A128A15C4000A128A150A200A128A159B
:10182E00C5000A128A150A200A128A15C600460831
:10183E00A7004508A6004408A5004308A4000A30E6
:10184E00F7000030F8005008F900FA01F91BFA030E
:10185E000A128A15D7200A128A15770883120313E3
:10186E00C70001300310C70DFF3E031D392C0310B6
:10187E00470D253E84000A128A150A200A128A157F
:10188E00C8000A128A150A200A128A15C9000A12FD
:10189E008A150A200A128A15CA000A128A150A2007
:1018AE000A128A15CB004B08AB004A08AA00490859
:1018BE00A9004808A8000A128A159F240A128A1540
:1018CE00831203132708C1002608C0002508BF0095
:1018DE002408BE009E2C5008C20001300310C20D19
:1018EE00FF3E031D752C0310420D013E84000A12AB
:1018FE008A150A200A128A15C3000A128A150A20AE
:10190E000A128A15C4000A128A150A200A128A15AA
:10191E00C5000A128A150A200A128A15C600460840
:10192E00C1004508C0004408BF004308BE000800BF
:10193E008312031327088039AC002C08B100270846
:10194E00AC002C07AD002D08B700A61FAF2CB02C95
:10195E00B12C371437080319B52CB62CC52C370A01
:10196E00031DBA2CBB2CC32C0030A7000030A600E0
:10197E000030A5000030A400A617CD2C0030A70023
:10198E000030A6000030A5000030A4002B088039DE
:10199E00AC002C08B1062B08AC002C07AD002D08AE
:1019AE00B600AA1FDB2CDC2CDD2C361436080319EE
:1019BE00E12CE22CF12C360A031DE62CE72CEF2C41
:1019CE000030AB000030AA000030A9000030A800A3
:1019DE00AA17F92C0030AB000030AA000030A90085
:1019EE000030A80036080319FD2CFE2C032D3708F5
:1019FE00031D022D032D0C2D0030A7000030A60074
:101A0E000030A5000030A400FF2F2408AC002C08E5
:101A1E00F0002A080A168A151B210A128A15710867
:101A2E0083120313BD007008BC003C08AC00AD016E
:101A3E00AE01AF012F08B5002E08B4002D08B3007B
:101A4E002C08B2003D08AC00AD01AE01AF012F086D
:101A5E00BB002E08BA002D08B9002C08B8002508C6
:101A6E00AC002C08F00029080A168A151B210A1250
:101A7E008A15710883120313BD007008BC003C0860
:101A8E00AC00AD01AE01AF012C08B2072D08031159
:101A9E000318013E0319542DB3072E080311031822
:101AAE00013E03195B2DB4072F0803110318013EE5
:101ABE000319622DB5073D08AC00AD01AE01AF01B3
:101ACE002C08B8072D0803110318013E0319702DB9
:101ADE00B9072E0803110318013E0319772DBA0713
:101AEE002F0803110318013E03197E2DBB0726088C
:101AFE00AC002C08F00028080A168A151B210A12C1
:101B0E008A15710883120313BD007008BC003C08CF
:101B1E00AC00AD01AE01AF012C08B2072D080311C8
:101B2E000318013E03199C2DB3072E080311031849
:101B3E00013E0319A32DB4072F0803110318013E0C
:101B4E000319AA2DB5073D08AC00AD01AE01AF01DA
:101B5E002C08B8072D0803110318013E0319B82DE0
:101B6E00B9072E0803110318013E0319BF2DBA073A
:101B7E002F0803110318013E0319C62DBB070830A9
:101B8E00AC000310B20DB30DB40DB50DAC0BC82DDA
:101B9E002508AC002C08F00028080A168A151B210F
:101BAE000A128A15710883120313BD007008BC0057
:101BBE003C08AC003D08AD00AE01AF012C08B207E9
:101BCE002D0803110318013E0319EE2DB3072E083D
:101BDE0003110318013E0319F52DB4072F08031145
:101BEE000318013E0319FC2DB5072408AC002C0880
:101BFE00F00029080A168A151B210A128A15710887
:101C0E0083120313BD007008BC003C08AC003D08F5
:101C1E00AD00AE01AF012C08B2072D080311031859
:101C2E00013E03191B2EB3072E0803110318013EA4
:101C3E000319222EB4072F0803110318013E0319AE
:101C4E00292EB5070830AC000310B20DB30DB40D3C
:101C5E00B50DAC0B2B2E2408AC002C08F000280878
:101C6E000A168A151B210A128A157108831203138C
:101C7E00BD007008BC003C08AC003D08AD00AE01D4
:101C8E00AF012C08B2072D0803110318013E0319EA
:101C9E00512EB3072E0803110318013E0319582EB7
:101CAE00B4072F0803110318013E03195F2EB50761
:101CBE002508AC002C08F0002A080A168A151B21EC
:101CCE000A128A15710883120313BD007008BC0036
:101CDE003C08AC003D08AD00AE01AF012C08B807C2
:101CEE002D0803110318013E03197E2EB9072E0885
:101CFE0003110318013E0319852EBA072F0803118D
:101D0E000318013E03198C2EBB072608AC002C08C5
:101D1E00F00029080A168A151B210A128A15710865
:101D2E0083120313BD007008BC003C08AC003D08D4
:101D3E00AD00AE01AF012C08B8072D080311031832
:101D4E00013E0319AB2EB9072E0803110318013EED
:101D5E000319B22EBA072F0803110318013E0319F7
:101D6E00B92EBB072608AC002C08F0002A080A166C
:101D7E008A151B210A128A15710883120313BD00DE
:101D8E007008BC003C08AC003D08AD00AE01AF01D0
:101D9E0008300310AC0DAD0DAE0DAF0DFF3E031DA3
:101DAE00D02E2C08B8072D0803110318013E031975
:101DBE00E12EB9072E0803110318013E0319E82E70
:101DCE00BA072F0803110318013E0319EF2EBB07A4
:101DDE003208AC003308AD003408AE003508AF0051
:101DEE0018300310AF0CAE0CAD0CAC0CFF3E031D47
:101DFE00F82E2C08B8072D0803110318013E0319FD
:101E0E00092FB9072E0803110318013E0319102FCD
:101E1E00BA072F0803110318013E0319172FBB072A
:101E2E000830AC000310B20DB30DB40DB50DAC0BF4
:101E3E00192F37083607AC00AD01AD0D2C08823EC8
:101E4E00BC002D080318013EFF3EBD004B2F013094
:101E5E00AC000310B80DB90DBA0DBB0DAC0B302F85
:101E6E00B51F3A2F3B2F3C2F38140130AC00031016
:101E7E00B20DB30DB40DB50DAC0B3E2FFF30BC073C
:101E8E000318BD0AFF30BD07BA1F4E2F4F2F2E2F3E
:101E9E00B601B51F532F542F702FFF303205AC00F3
:101EAE00FF303305AD00FF303405AE007F30350511
:101EBE00AF002F082E042D042C040319672F682F52
:101ECE006B2FB601B60A702F381C6E2F6F2F702F26
:101EDE00682F36080319742F752FA62F0130B807F7
:101EEE00003003180130B907003003180130BA076B
:101EFE00003003180130BB073B1C862F872FA62FFF
:101F0E003808AC003908AD003A08AE003B08AF0007
:101F1E000130B0002F0DAF0CAE0CAD0CAC0CB00BF5
:101F2E00912F2F08BB002E08BA002D08B9002C08DF
:101F3E00B8000130BC070318BD0A0030BD073D08CC
:101F4E00803AFF0080307F02031DAF2FFF303C022E
:101F5E00031CB22FB32FBE2F7F3083120313BB008F
:101F6E008030BA000030B9000030B800F32F831271
:101F7E0003133D08803AFF0080307F02031DC92FF6
:101F8E0001303C020318CC2FCD2FD92F00308312F5
:101F9E000313BB000030BA000030B9000030B800A7
:101FAE00B101F32F831203133C08AC002C08B700C9
:101FBE00FF30B805FF30B9057F30BA050030BB05DC
:101FCE00371CEA2FEB2FEC2FBA173708AC00031093
:101FDE002C0CAD002D08BB003108AC002C08BB0446
:101FEE003B08A7003A08A6003908A5003808A40047
:021FFE000800D9
:10200600F100F0013A30710203180A280B28132850
:1020160030307102031C102811281328F001F00A31
:10202600700C08000A168A155E200A168A110A160E
:102036008A1522200A168A110A168A1526200A16D9
:102046008A110A168A153B200A168A110A168A155B
:102056002B200A168A110A128A110E200A168A11D4
:102066000A168A1551200A168A11F401F40A01305B
:102076000A168A15AE200A168A11AA30F300803095
:10208600F4000A168A15E5210A168A110A168A1517
:1020960051200A168A11F401F40A01300A168A152B
:1020A600AE200A168A11AA30F3008030F4000A1610
:1020B6008A15E5210A168A110A168A15CC230A16EC
:1020C6008A110A168A1543240A168A11B93083160C
:1020D6000313C9004908A0005308A4005208A3002E
:1020E6005108A2005008A1004F08A8004E08A700FA
:1020F6004D08A6004C08A500D4300A128A11782093
:102106000A168A11F401F40A02300A168A15AE205C
:102116000A168A11D430F3000030F4000A168A1524
:10212600E5210A168A119130F1008030F2000A1674
:102136008A1542210A168A110D300A168A1545207B
:102146000A168A110A300A168A1545200A168A11B5
:10215600D430F1000030F2000A168A1542210A1620
:102166008A110D300A168A1545200A168A110A3078
:102176000A168A1545200A168A1106308316031395
:10218600CB001330CA00AD30C900C90BC828CA0B32
:10219600C828CB0BC82849280A128A110028031020
:1021A600720D730DF800780883120313A500250835
:1021B600031DDE28DF28E8280030F3000030F20097
:1021C6000030F1000030F0008F290310760D770DF6
:1021D600F8007808A4002408031DF228F328F42840
:1021E600DF28F217FF30F005FF30F105FF30F2056A
:1021F6000030F305F617FF30F405FF30F505FF3024
:10220600F6050030F7050030A3000030A2000030CC
:10221600A1000030A0007F30A502A0302407F800FE
:102226007808A5022030F8007808A4000130F800EC
:102236000310A00DA10DA20DA30DF80B1B29770805
:102246007302031D302976087202031D30297508B2
:102256007102031D302974087002031C33293429C6
:1022660043297408F0027508031C750FF1027608FD
:10227600031C760FF2027708031C770FF302201473
:102286000130F8000310F00DF10DF20DF30DF80B0F
:1022960045290130A402031D512952291929A51FD8
:1022A6005529562970292508803A9F3E03185C292E
:1022B6005D295E29DF2801300310A30CA20CA10CB6
:1022C600A00CFF3E031D5F290130F8007808A50722
:1022D600031D6E296F295E29872920302502031CDC
:1022E600752976298229DF280130F8000310A00D10
:1022F600A10DA20DA30DF80B79290130A502250821
:10230600031D8629872977292308F3002208F2006E
:102316002108F1002008F000080083120313450885
:102326008039C6004608CF004508C6004607C700E4
:102336004708D600C41FA029A129A2295614560869
:102346000319A629A729B729560A031DAB29AC29C3
:10235600B4290030C5000030C4000030C30000308E
:10236600C200C417C501BF290030C5000030C40033
:102376000030C3000030C20041088039C60046085C
:10238600CF064108C6004607C7004708D700C01F4A
:10239600CD29CE29CF29571457080319D329D42973
:1023A600E429570A031DD829D929E1290030C1009B
:1023B6000030C0000030BF000030BE00C017C101B1
:1023C600EC290030C1000030C0000030BF000030F2
:1023D600BE00410840043F043E04031DF329F429CE
:1023E6000D2A0030C5000030C4000030C3000030A4
:1023F600C2008030C4047F30C5044F08C6004608BA
:10240600C5044508C1004408C0004308BF0042088F
:10241600BE006C2B5608031D112A122A1B2A0030F7
:10242600C1000030C0000030BF000030BE006C2B81
:102436005608C600C7014708C90057084602C80023
:10244600031CC90348087F3ED00049080318013E13
:10245600003ED1004508CE004408CD004308CC001C
:102466004208CB000030C5000030C4000030C30075
:102476000030C2000030D5000030D4000030D30058
:102486000030D200D701912A570803194B2A4C2A4B
:102496006C2A0130C6000310CB0DCC0DCD0DCE0D30
:1024A600C60B4E2A0130C6000310C20DC30DC40D63
:1024B600C50DC60B572AD51F612A622A632A421404
:1024C6000130C6000310D20DD30DD40DD50DC60BA9
:1024D600652A41084E02031D7A2A40084D02031D53
:1024E6007A2A3F084C02031D7A2A3E084B02031C37
:1024F6007D2A7E2A8D2A55173E08CB023F08031CEB
:102506003F0FCC024008031C400FCD024108031CBC
:10251600410FCE020130C6004608D7071A305702CF
:10252600031C962A972A472A4E084D044C044B044E
:1025360003199E2A9F2ABE2A5214BE2A0130C600BB
:102546000310C20DC30DC40DC50DC60BA32AD51F9E
:10255600AD2AAE2AAF2A42140130C6000310D20DAE
:10256600D30DD40DD50DC60BB12AFF30D0070318F5
:10257600D10AFF30D107C41FC12AC22AA12AD70116
:10258600D51FC62AC72AE32AFF305205C600FF30E8
:102596005305C700FF305405C8007F305505C900F4
:1025A60049084804470446040319DA2ADB2ADE2AC6
:1025B600D701D70AE32A421CE12AE22AE32ADB2AC8
:1025C60057080319E72AE82A192B0130C2070030F9
:1025D60003180130C307003003180130C407003068
:1025E60003180130C507451CF92AFA2A192B420897
:1025F600C6004308C7004408C8004508C9000130A2
:10260600CA00490DC90CC80CC70CC60CCA0B042B52
:102616004908C5004808C4004708C3004608C20068
:102626000130D0070318D10A0030D1075108803A8B
:10263600FF0080307F02031D222BFF305002031C57
:10264600252B262B342BFF3083120313D0000030AA
:10265600D1000030C5000030C4000030C300003097
:10266600C200831203135108803AFF0080307F02B4
:10267600031D3F2B013050020318422B432B502BD6
:1026860083120313D001D1010030C5000030C4000D
:102696000030C3000030C200CF018312031350087C
:1026A600C6004608D600561C592B5A2B5C2BC4175D
:1026B600602B7F30C6004608C4055608C6000310C6
:1026C600460CC7004708C5004F08C6004608C504A3
:1026D600042A080083120313D1006E305102031C32
:1026E600752B762B832C3F30A7000030A6000030D8
:1026F600A5000030A4006430F6000030F700510851
:10270600C200C3014208F8004308F9000A168A15F8
:1027160027220A168A11760883120313C400013091
:102726000310C40DFF3E031D932B0310440D7D3E85
:1027360084000A128A150A200A168A11C5000A128E
:102746008A150A200A168A11C6000A128A150A2054
:102756000A168A11C7000A128A150A200A168A1151
:10276600C8004808AB004708AA004608A900450863
:10277600A8000A128A159F240A168A1183120313C7
:102786002708D0002608CF002508CE002408CD0053
:102796000A30F6000030F7005108C200C3014208B3
:1027A600F2004308F3006430F0000030F1000A162E
:1027B6008A156D210A168A117108F9007008F80049
:1027C6000A168A1527220A168A1176088312031317
:1027D600C40001300310C40DFF3E031DED2B031092
:1027E600440D593E84000A128A150A200A168A11D7
:1027F600C5000A128A150A200A168A11C6000A128C
:102806008A150A200A168A11C7000A128A150A2092
:102816000A168A11C8004808A7004708A6004608F5
:10282600A5004508A4005008AB004F08AA004E08B2
:10283600A9004D08A8000A128A159F240A168A11B3
:10284600831203132708CC002608CB002508CA00EC
:102856002408C9000A30F0000030F1005108C20017
:10286600C3014208F2004308F3000A168A156D21D7
:102876000A168A11700883120313C400013003106C
:10288600C40DFF3E031D422C0310440D353E84004B
:102896000A128A150A200A168A11C5000A128A1512
:1028A6000A200A168A11C6000A128A150A200A1672
:1028B6008A11C7000A128A150A200A168A11C80048
:1028C6004808A7004708A6004608A5004508A40032
:1028D6004C08AB004B08AA004A08A9004908A80002
:1028E6000A128A159F240A168A11831203132708CF
:1028F600C1002608C0002508BF002408BE00772DA9
:102906000B305102031C882C892C342D3F30A70034
:102916000030A6000030A5000030A4000A30F60002
:102926000030F7005108C200C3014208F80043080E
:10293600F9000A168A1527220A168A1176088312C2
:102946000313C40001300310C40DFF3E031DA62C63
:102956000310440D593E84000A128A150A200A16ED
:102966008A11C5000A128A150A200A168A11C6009B
:102976000A128A150A200A168A11C7000A128A152F
:102986000A200A168A11C8004808AB004708AA00A0
:102996004608A9004508A8000A128A159F240A16A7
:1029A6008A11831203132708D0002608CF002508B2
:1029B600CE002408CD000A30F0000030F1005108A6
:1029C600C200C3014208F2004308F3000A168A1542
:1029D6006D210A168A11700883120313C400013090
:1029E6000310C40DFF3E031DF32C0310440D353EAA
:1029F60084000A128A150A200A168A11C5000A12CC
:102A06008A150A200A168A11C6000A128A150A2091
:102A16000A168A11C7000A128A150A200A168A118E
:102A2600C8004808A7004708A6004608A5004508AC
:102A3600A4005008AB004F08AA004E08A9004D0894
:102A4600A8000A128A159F240A168A1183120313F4
:102A56002708C1002608C0002508BF002408BE00BC
:102A6600772D3F30A7000030A6000030A5000030CB
:102A7600A4005108C20001300310C20DFF3E031D21
:102A86003F2D0310420D353E84000A128A150A2096
:102A96000A168A11C3000A128A150A200A168A1112
:102AA600C4000A128A150A200A168A11C5000A12DB
:102AB6008A150A200A168A11C6004608AB00450880
:102AC600AA004408A9004308A8000A128A159F24F0
:102AD6000A168A11831203132708C1002608C000AC
:102AE6002508BF002408BE000800831203135508FA
:102AF6008039DA005A08E2005508DA005A07DB0086
:102B06005B08E400D41F882D892D8A2D641464087F
:102B160003198E2D8F2D9F2D640A031D932D942D41
:102B26009C2D0030D5000030D4000030D30000309A
:102B3600D200D417D501A72D0030D5000030D4001F
:102B46000030D3000030D20059088039DA005A0824
:102B5600E300630862060319B12DB22DB32D621787
:102B66005908DA005A07DB005B08E300D81FBC2DC2
:102B7600BD2DBE2D631463080319C22DC32DD32D9D
:102B8600630A031DC72DC82DD02D0030D900003093
:102B9600D8000030D7000030D600D817D901DB2D79
:102BA6000030D9000030D8000030D7000030D60001
:102BB600640863020318E02DE12D252E621FE42D23
:102BC600E52DE92D8030DA005A08E2066408DA00BD
:102BD6005A08E5006308DA005A08E4006508DA00D6
:102BE6005A08E3005208DA005A08E5005608DA00E7
:102BF6005A08D2006508DA005A08D6005308DA00E7
:102C06005A08E5005708DA005A08D3006508DA00C2
:102C16005A08D7005408DA005A08E5005808DA00BE
:102C26005A08D4006508DA005A08D8005508DA00B0
:102C36005A08E5005908DA005A08D5006508DA008E
:102C46005A08D900E5016308DA00DB015B08DD00FC
:102C560064085A02DC00031CDD035D08803AFF00AD
:102C660080307F02031D392E1A305C02031C3C2E75
:102C76003D2E7A2E8312031355085404530452042E
:102C8600031D462E482E0130492E0030DA005A0820
:102C9600E5000030D5000030D4000030D30000300D
:102CA600D2006308DA005A08E400822E651C5C2E06
:102CB6005D2E662E6508DA0003105A0C0138DB001B
:102CC6005B08E500682E0310E50C521C6B2E6C2E7B
:102CD6006D2EE5170130DA00550DD50CD40CD30C4A
:102CE600D20CDA0B6F2E0130DA005A08E407831291
:102CF600031363086402031C812E822E592E621B65
:102D0600852E862ED12E6408031D8A2E8B2E942E98
:102D16000030D5000030D4000030D3000030D2009F
:102D2600FF2F5608D207570803110318013E03194F
:102D36009D2ED307580803110318013E0319A42E2C
:102D4600D407590803110318013E0319AB2ED50702
:102D5600551CAE2EAF2E852F651CB22EB32EBC2E63
:102D66006508DA0003105A0C0138DB005B08E50041
:102D7600BE2E0310E50C521CC12EC22EC32EE51723
:102D86000130DA00550DD50CD40CD30CD20CDA0B6D
:102D9600C52E0130DA005A08E407852F5508803A17
:102DA600FF005908803A7F02031DE32E580854029B
:102DB600031DE32E57085302031DE32E5608520245
:102DC6000318E62EE72E3F2FFF30DA00FF30DB0038
:102DD600FF30DC00FF30DD005608DE005708DF005C
:102DE6005808E0005908E1005208DE025308031CA7
:102DF600530FFE2EFF2EDF025408031C540F042F20
:102E0600052FE0025508031C550F0A2F0B2FE10270
:102E16005E08DA075F0803185F0F122F132FDB0710
:102E260060080318600F182F192FDC0761080318B4
:102E3600610ADD075D08D5005C08D4005B08D30095
:102E46005A08D2008030DA005A08E206E509E50A97
:102E56006508031D2F2F302F4D2F0130D20700306C
:102E660003180130D307003003180130D4070030AF
:102E760003180130D5074D2F5608D2025708031CF8
:102E8600570FD3025808031C580FD4025908031CC5
:102E9600590FD5025508540453045204031D542FE8
:102EA600552F812F6508031D592F5A2F812F00306A
:102EB600D5000030D4000030D3000030D200FF2F00
:102EC6000130DA000310D20DD30DD40DD50DDA0B77
:102ED600652FE51F6F2F702F712F5214651C742FED
:102EE600752F782F0314E50D7A2F0310E50D64086E
:102EF60003197E2F7F2F812F0130E402D41F842FE8
:102F0600852F632FE301E51F892F8A2F982F6508E8
:102F16007F3903198F2F902F932FE301E30A982F00
:102F2600521C962F972F982F902F630803199C2FCA
:102F36009D2FD12F0130D207003003180130D3075F
:102F4600003003180130D407003003180130D507CC
:102F5600551CAE2FAF2FD12F5208DA005308DB00D5
:102F66005408DC005508DD000130DE005D0DDD0C87
:102F7600DC0CDB0CDA0CDE0BB92F5D08D5005C0827
:102F8600D4005B08D3005A08D200640A0319CC2F78
:102F9600CD2FD12F0130DA005A08E407640A03194D
:102FA600D52FD62FDB2F6408031DDA2FDB2FE92F51
:102FB6000030D5000030D4000030D3000030D200FD
:102FC6006408031DE72FE82FE92FE201641CEC2FAC
:102FD600ED2FEF2FD417F32F7F30DA005A08D405E0
:102FE6006408DA0003105A0CDB005B08D500E21F08
:0A2FF600FD2FFE2FFF2FD517080056
:10304400831603139F0108000C30831603139900A1
:1030540008008312031398171813981218169A016C
:10306400080064008001840A04060319003404067D
:10307400342883160313981318139816181218116A
:10308400981018100800F00083160313981C4B289E
:103094004C28462870088312031399000800003056
:1030A4000A168A158C200A168A1501300A168A1502
:1030B4008C200A168A1508008316031388018901D7
:1030C40003308500033083160317880089018312B7
:1030D40003138801890187010800F2008312031396
:1030E400091472080A168A15A7210A168A1583126A
:1030F400031389140330F100F10B7E2883120313A8
:1031040089100330F100F10B85282130F100F10B17
:1031140089280800F30083120313091073080A16A0
:103124008A15A7210A168A158312031389140330FA
:10313400F100F10B9B288312031389100330F10073
:10314400F10BA2280630F2003030F100F10BA82870
:10315400F20BA82800000800F6007603031DB3282C
:10316400B428C0287408803EF5007508F700770875
:103174000A168A158C200A168A15D128023076067A
:10318400031DC528C628D1287408C03EF50075085B
:10319400F70077080A168A158C200A168A15080083
:1031A400803083120313E9066D08D5006C08D4003F
:1031B4006B08D3006A08D2006908D9006808D800EF
:1031C4006708D7006608D6000A168A1178250A16F9
:1031D4008A15831203135508E9005408E8005308BC
:1031E400E7005208E6000800F401F501701CFB2812
:1031F400FC2802297208F4070318F50A7308F50776
:1032040001300310F20DF30DFF3E031D03290130BD
:103214000310F10CF00CFF3E031D0A297008710421
:10322400031D15291629F8287508F1007408F00003
:103234000800F800F401F5017008F200F3017208C7
:10324400F6007308F700781C282929292F29760805
:10325400F4070318F50A7708F50701300310F60D93
:10326400F70DFF3E031D30290310F80C7808031DE9
:103274003C293D2925297508F1007408F00008004F
:10328400F401592974087107840072080318720A3A
:10329400FF000A128A1500200A168A150A168A15D2
:1032A40045200A168A150130F3007308F4077408E0
:1032B4007107840072080318720A83120313FF0053
:1032C4000A128A1500200A168A15003A031D6B2972
:1032D4006C294429080070087104031972297329A0
:1032E400A229F501F50A812901300310F00DF10D31
:1032F400FF3E031D77290130F4007408F507F11F20
:1033040084298529762971087302031D8B29700885
:103314007202031C8E298F2995297008F202710804
:10332400031CF303F30201300310F10CF00CFF3E15
:10333400031D96290130F502031DA129A22985291F
:103344007308F1007208F0000800F000701CAB294B
:10335400AC29B029831203130814B329831203136D
:103364000810F01CB629B729B9298814BA2988107D
:10337400701DBD29BE29C0290815C1290811F01DD9
:10338400C429C529C7298815C8298811701ECB29C5
:10339400CC29CE290816CF290812F01ED229D32908
:1033A400D5298816D6298812701FD929DA29DC294B
:1033B4000817DD290813F01FE029E129E3298817FC
:1033C400E42988130800F801F9010A2A7808730728
:1033D400F6007408F5000318F50AF81FF229F5033E
:1033E4007508F700770883120313FF00760884003A
:1033F4000A128A1500200A168A150A168A156F20E1
:103404000A168A150130F8070318F90A0030F9077B
:1034140078087307F6007408F5000318F50AF81F16
:10342400142AF5037508F700770883120313FF00C5
:10343400760884000A128A1500200A168A15003AB2
:10344400031D252A262AE8290800FB01FC01760829
:10345400770403192E2A2F2A662AFD01FD0A3D2A24
:1034640001300310F60DF70DFF3E031D332A013022
:10347400FA007A08FD07F71F402A412A322A013050
:103484000310FB0DFC0DFF3E031D422A7708790251
:10349400031D4E2A76087802031C512A522A592AFF
:1034A4007608F8027708031CF903F9027B1401304B
:1034B4000310F70CF60CFF3E031D5A2A0130FD02DF
:1034C400031D652A662A412A7C08F7007B08F6005A
:1034D400080000307005F80000307105F9008030F4
:1034E4007205FA007F307305FB007B087A047904C7
:1034F4007804031D7E2A7F2A872A0030F3000030D7
:10350400F2000030F1000030F00000307405F800E3
:1035140000307505F90080307605FA007F307705B4
:10352400FB007B087A0479047804031D9A2A9B2AF9
:10353400A32A0030F7000030F6000030F500003018
:10354400F40077087306031DB12A76087206031D7A
:10355400B12A75087106031DB12A7408700603198F
:10356400B42AB52AB72A0310B82A0314080073082A
:103574007204710470040319C02AC12A042BF901CE
:10358400F90AD12A0130F8000310F00DF10DF20D03
:10359400F30DF80BC62A0130F8007808F907F31F79
:1035A400D42AD52AC42A73087702031DE32A720891
:1035B4007602031DE32A71087502031DE32A7008CD
:1035C4007402031CE62AE72AF52A7008F40271083B
:1035D400031C710FF5027208031C720FF6027308C4
:1035E400031C730FF70201300310F30CF20CF10CFF
:1035F400F00CFF3E031DF62A0130F902031D032BD4
:10360400042BD52A7708F3007608F2007508F10038
:103614007408F0000800F601F31F112B122B192B6C
:10362400F209F309F20A0319F30AF601F60AF11F83
:103634001C2B1D2B222BF009F109F00A0319F10AA6
:10364400700871040319272B282B572BF501F50A51
:10365400362B01300310F00DF10DFF3E031D2C2B12
:103664000130F4007408F507F11F392B3A2B2B2B8A
:1036740071087302031D402B70087202031C432B54
:10368400442B4A2B7008F2027108031CF303F30263
:1036940001300310F10CF00CFF3E031D4B2B0130E5
:1036A400F502031D562B572B3A2B760803195B2B77
:1036B4005C2B612BF209F309F20A0319F30A73086C
:1036C400F1007208F00008000030FC000030FB003C
:1036D4000030FA000030F9007308720471047004B9
:1036E4000319752B762BC32BFD01FD0A862B0130A4
:1036F400F8000310F00DF10DF20DF30DF80B7B2B18
:103704000130F8007808FD07F31F892B8A2B792BE9
:103714000130F8000310F90DFA0DFB0DFC0DF80B48
:103724008C2B73087702031DA12B72087602031DEC
:10373400A12B71087502031DA12B70087402031CD0
:10374400A42BA52BB42B7008F4027108031C710F71
:10375400F5027208031C720FF6027308031C730F40
:10376400F702791401300310F30CF20CF10CF00C95
:10377400FF3E031DB52B0130FD02031DC22BC32BDD
:103784008A2B7C08F3007B08F2007A08F1007908A0
:10379400F00008000030F000F1000A168A15D9255F
:1037A4000A168A15831203131F179F131F14A530BB
:1037B40083120313D800D80BDD2BE02B83120313E1
:1037C4009F143D2C4330C1007F30C0000030BF0047
:1037D4000030BE004030A700A030A6000030A50095
:1037E4000030A4001E08D800D901DA01DB015B080F
:1037F400F3005A08F2005908F1005808F0000130AB
:103804000A168A1589260A168A1573088312031361
:10381400AB007208AA007108A9007008A8000A1277
:103824008A159F240A168A15831203132708C500D4
:103834002608C4002508C3002408C2000A168A11F9
:1038440090210A168A158312031341088316031361
:10385400D30083120313400883160313D200831288
:1038640003133F0883160313D100831203133E0886
:1038740083160313D00083129F18412C422CE42B8F
:1038840008000130F0000030F1000A168A15D9252D
:103894000A168A15831203131F179F131F14A530CA
:1038A40083120313D800D80B552C582C83120313FE
:1038B4009F14B52C4330C1007F30C0000030BF00DE
:1038C4000030BE004030A700A030A6000030A500A4
:1038D4000030A4001E08D800D901DA01DB015B081E
:1038E400F3005A08F2005908F1005808F0000130BA
:1038F4000A168A1589260A168A1573088312031371
:10390400AB007208AA007108A9007008A8000A1286
:103914008A159F240A168A15831203132708C500E3
:103924002608C4002508C3002408C2000A168A1108
:1039340090210A168A158312031341088316031370
:10394400CF0083120313400883160313CE0083129F
:1039540003133F0883160313CD00831203133E0899
:1039640083160313CC0083129F18B92CBA2C5C2C39
:103974000800031083120313530D540DD50055088A
:10398400DB005B08031DC72CC82CD12C0030D400ED
:103994000030D3000030D2000030D100362D510861
:1039A400D5005208D6005308D7005408D8001F3059
:1039B4000310D80CD70CD60CD50CFF3E031DDA2C03
:1039C4005508D9005908DA00D317FF30D105FF3064
:1039D400D205FF30D3050030D4059630DB02DB1F5F
:1039E400F42CF52C0F2D5B08803A973E0318FB2C22
:1039F400FC2CFD2CC82C01300310D40CD30CD20C9D
:103A0400D10CFF3E031DFE2C0130D5005508DB0709
:103A1400031D0D2D0E2DFD2C262D20305B02031CC5
:103A2400142D152D212DC82C0130D5000310D10DD6
:103A3400D20DD30DD40DD50B182D0130DB025B084C
:103A4400031D252D262D162D5A0803192A2D2B2D3D
:103A5400362DD109D209D309D409D10A0319D20ABE
:103A64000319D30A0319D40A080000307005F800BA
:103A740000307105F90080307205FA007F3073055B
:103A8400FB007B087A0479047804031D4A2D4B2D2E
:103A9400532D0030F3000030F2000030F10000300C
:103AA400F00000307405F80000307505F90080302E
:103AB4007605FA007F307705FB007B087A047904E9
:103AC4007804031D662D672D6F2D0030F70000303C
:103AD400F6000030F5000030F400F31F722D732D52
:103AE400972D0030F8000030F9000030FA008030E3
:103AF400FB007008F8027108031C710F822D832DDE
:103B0400F9027208031C720F882D892DFA027308BA
:103B1400031C730F8E2D8F2DFB027B08F3007A0894
:103B2400F2007908F1007808F000F71F9A2D9B2D18
:103B3400BF2D0030F8000030F9000030FA0080306A
:103B4400FB007408F8027508031C750FAA2DAB2D31
:103B5400F9027608031C760FB02DB12DFA0277080E
:103B6400031C770FB62DB72DFB027B08F7007A08EC
:103B7400F6007908F5007808F4008030F306803008
:103B8400F70677087302031DD12D76087202031D10
:103B9400D12D75087102031DD12D7408700203180C
:103BA400D42DD52DD72D0310D82D03140800512E54
:103BB400831203139F121F129F111F11882E831249
:103BC40003139F121F129F111F15882E83120313B4
:103BD4009F121F129F151F11882E831203139F1209
:103BE4001F129F151F15882E831203139F121F1671
:103BF4009F111F11882E831203139F121F169F11EA
:103C04001F15882E831203139F121F169F151F1151
:103C1400882E831203139F121F169F151F15882EBB
:103C2400831203139F161F129F111F11882E8312D4
:103C340003139F161F129F111F15882E831203133F
:103C44009F161F129F151F11882E831203139F1690
:103C54001F129F151F15882E831203139F161F16FC
:103C64009F111F11882E831203139F161F169F1175
:103C74001F15882E831203139F161F169F151F11DD
:103C8400882E831203139F161F169F151F15882E47
:103C9400831203139F121F129F111F11882E710884
:103CA400003A0319562E4A2E7008003A0319DA2DE9
:103CB400013A0319E12D033A0319E82D013A0319D6
:103CC400EF2D073A0319F62D013A0319FD2D033A96
:103CD4000319042E013A03190B2E0F3A0319122E5D
:103CE400013A0319192E033A0319202E013A031934
:103CF400272E073A03192E2E013A0319352E033ABB
:103D040003193C2E013A0319432E4A2E0800F800E9
:103D1400780803198E2E8F2EA32EF31F922E932E26
:103D2400A32E7009FA007109FB007209FC007309E3
:103D3400FD00FA0A0319FB0A0319FC0A0319FD0A18
:103D4400AB2E7308FD007208FC007108FB007008BC
:103D5400FA007308720471047004031DB22EB32EAA
:103D6400BC2E0030F3000030F2000030F1000030CF
:103D7400F000422F9630F4007408F900CE2E013082
:103D8400F4007408F90701300310FD0CFC0CFB0C63
:103D9400FA0CFF3E031DC62EFE307D05031DD32EF7
:103DA400D42EC12EF02E0130F4007408F90701302E
:103DB400FA07003003180130FB0700300318013004
:103DC400FC07003003180130FD0701300310FD0C1F
:103DD400FC0CFB0CFA0CFF3E031DE82EFF307D05A6
:103DE400031DF52EF62ED52E022F0130F9020130D7
:103DF400F4000310FA0DFB0DFC0DFD0DF40BFB2E6E
:103E0400FC1B052F062F0C2F0230790203180B2FF1
:103E14000C2FF72E79180F2F102F182FFF30FA05BB
:103E2400FF30FB057F30FC05FF30FD050310F90C66
:103E34007908F400F501F601F70118300310F40DC8
:103E4400F50DF60DF70DFF3E031D202F7408FA043F
:103E54007508FB047608FC047708FD047808031948
:103E6400342F352F3A2FF31F382F392F3A2FFD17C0
:103E74007D08F3007C08F2007B08F1007A08F0006A
:103E840008007008F8007108F9007208FA000310BD
:103E9400790D7A0DFB007B0883120313A500250816
:103EA400031D552F562F5F2F0030F3000030F20012
:103EB4000030F1000030F000FF2F7408F80075089E
:103EC400F9007608FA000310790D7A0DFB007B08DF
:103ED400A4002408031D6F2F702F712F562FF11784
:103EE400FF30F005FF30F1050030F205F517FF3023
:103EF400F405FF30F5050030F6050030A30000306E
:103F0400A2000030A1000030A0007F30A50298304C
:103F14002407F8007808A5021830F8007808A400EF
:103F24000130F8000310A00DA10DA20DA30DF80B94
:103F3400942F76087202031DA52F75087102031DC4
:103F4400A52F74087002031CA82FA92FB42F74087E
:103F5400F0027508031C750FF1027608031C760A3B
:103F6400F202201401300310F00DF10DF20DFF3EAA
:103F7400031DB52F0130A402031DC12FC22F922FA0
:103F8400A51FC52FC62FE02F2508803A973E03189A
:103F9400CC2FCD2FCE2F562F01300310A30CA20C03
:103FA400A10CA00CFF3E031DCF2F0130F8007808B0
:103FB400A507031DDE2FDF2FCE2FF72F1830250284
:103FC400031CE52FE62FF22F562F0130F8000310C3
:103FD400A00DA10DA20DA30DF80BE92F0130A50230
:103FE4002508031DF62FF72FE72F2308F3002208D7
:0C3FF400F2002108F1002008F000080095
:04400E00D123FF3F7C
:00000001FF
