:020000040000FA
:060000000A128A110C280F
:10000800FE00030EF1000A08F2000A128A113929CB
:100018000A128A110F28F801F901FA0183010A125C
:100028008A11E7288E28831203139F121F129F112B
:100038001F11C528831203139F121F129F111F152A
:10004800C528831203139F121F129F151F11C5285D
:10005800831203139F121F129F151F15C5288312A1
:1000680003139F121F169F111F11C5288312031314
:100078009F121F169F111F15C528831203139F1265
:100088001F169F151F11C528831203139F121F16D1
:100098009F151F15C528831203139F161F129F1142
:1000A8001F11C528831203139F161F129F111F15B6
:1000B800C528831203139F161F129F151F11C528E9
:1000C800831203139F161F129F151F15C52883122D
:1000D80003139F161F169F111F11C52883120313A0
:1000E8009F161F169F111F15C528831203139F16ED
:1000F8001F169F151F11C528831203139F161F165D
:100108009F151F15C528831203139F121F129F11D5
:100118001F11C5287408003A031993288728730803
:10012800003A03191728013A03191E28033A03193C
:100138002528013A03192C28073A03193328013ACC
:1001480003193A28033A03194128013A03194828A0
:100158000F3A03194F28013A03195628033A03198D
:100168005D28013A03196428073A03196B28013AF4
:1001780003197228033A03197928013A03198028C8
:100188008728080001308316031788008901013089
:1001980083160313850086018801831203138501E2
:1001A800860188018B170B178C11831603138C1586
:1001B8008516F301F401F50124300A128A1123216E
:1001C8000A128A1108000A128A11C6200A128A1114
:1001D8000A128A1155210A128A110A128A11062155
:1001E8000A128A110A128A1106210A128A11F700C4
:1001F8007708FA007A08831203138800F1280A1294
:100208008A110C280030F300F4000A128A11162013
:100218000A128A11831203131F179F131F14A63083
:10022800F500F50B15290000831203139F141E29EE
:100238001E0822299F18212922291C290800F600B6
:10024800831603138712761D2A292B292F2975084F
:10025800940087153329730875049400871176086C
:1002680074048312031394000800831203138C1D73
:100278003E293F2948297A080A128A114F210A1271
:100288008A11831203138C1172088A00710E83007D
:10029800FE0E7E0E0900F00070088312031393000F
:0A02A8000800831603139F010800ED
:04400E00D120FF3F7F
:00000001FF
