:020000040000FA
:060000000A128A110C280F
:10000800FE00030EF1000A08F2000A128A118F2876
:100018000A128A110F28FA0183010A128A11142878
:100028000A128A115B200A128A1183120313061816
:100038001E281F2839280230F9000430F800BA3089
:10004800F700F70B2528F80B2528F90B25280000C1
:1000580083120313061C3128322839287A08013EF6
:10006800F7007708FA007A08880086183C283D28A7
:1000780019280230F9000430F800BA30F700F70BFD
:100088004328F80B4328F90B432800008312031375
:10009800861C4F28502819287A08FF3EF700770851
:1000A800FA007A08880019280A128A110C2883167F
:1000B800031788018901033083160313860088011A
:1000C80083120313860188018B170B178C11831673
:1000D80003138C158516F301F401F50124300A1277
:1000E8008A1179200A128A110800F6008316031370
:1000F8008712761D80288128852875089400871521
:10010800892873087504940087117608740483128B
:10011800031394000800831203138C1D9428952858
:100128009E287A080A128A11A5200A128A118312B7
:1001380003138C1172088A00710E8300FE0E7E0E66
:0E0148000900F00070088312031393000800F2
:04400E00D120FF3F7F
:00000001FF
