:020000040000FA
:100000000A128A11FC2F00308A000408840A820731
:100010000034013400340A34003464340034E834E9
:1000200003341034273420344134793420343D34BF
:1000300020342534643420342034203420340034F7
:1007D4000A128A111E240A128A1183160313111590
:1007E40008008316031391121116111AFA2BFB2B0E
:1007F400F72B08008316031391161116111A032CF4
:10080400042C002C0800F00083160313981C0B2CF6
:100814000C2C062C7008831203139900080028304E
:100824008312031394008316031391019401CF30B0
:100834009300871507160800831603131419232C35
:10084400242C1E2C11081F39031D292C2A2C1E2C84
:1008540008008316031318110C3099001812831220
:10086400031398178316031307178717981608009E
:10087400F0000A128A111E240A128A1170088312C7
:10088400031393008C1D472C482C442C8C11080016
:10089400F1000A128A111E240A128A118316031304
:1008A400111471080A128A113A240A128A110800D2
:1008B400F100831603139115141C612C622C5E2C19
:1008C400831203131308F0007008F2007108031D6B
:1008D4006C2C6D2C732C0A128A11F3230A128A11C0
:1008E400782C0A128A11FC230A128A118312031328
:1008F4008C1D7D2C7E2C782C8C11720808000A1219
:100904008A112B240A128A118316031308118601F3
:100914008316031789010A128A11C2250A128A1141
:1009240004308312031388060A128A115F260A12FE
:100934008A11023083120313E9000430E800B9304D
:10094400E700E70BA32CE80BA32CE90BA32CAA2CA0
:10095400922C0A128A110028F501F601CA2C750896
:100964007107F30076080318760A7207F400730817
:1009740084008317741C831300080A128A11052447
:100984000A128A110130F5070318F60A0030F60737
:1009940075087107F30076080318760A7207F400E5
:1009A400730884008317741C83130008031DDB2C55
:1009B400DC2CB12C0800780879040319E22CE32C10
:1009C400122DFD01FD0AF12C01300310F80DF90D73
:1009D400FF3E031DE72C0130FC007C08FD07F91FD6
:1009E400F42CF52CE62C79087B02031DFB2C7808EB
:1009F4007A02031CFE2CFF2C052D7808FA027908D4
:100A0400031CFB03FB0201300310F90CF80CFF3E3E
:100A1400031D062D0130FD02031D112D122DF52C91
:100A24007B08F9007A08F8000800F501F60170085F
:100A3400710403191E2D1F2D562DF701F70A2D2DB4
:100A440001300310F00DF10DFF3E031D232D013085
:100A5400F4007408F707F11F302D312D222D0130D9
:100A64000310F50DF60DFF3E031D322D71087302C0
:100A7400031D3E2D70087202031C412D422D492D89
:100A84007008F2027108031CF303F30275140130B9
:100A94000310F10CF00CFF3E031D4A2D0130F70248
:100AA400031D552D562D312D7608F1007508F000E3
:100AB4000800F601F11F5F2D602D672DF009F10983
:100AC400F00A0319F10AF601F60AF31F6A2D6B2DD9
:100AD400742DF209F309F20A0319F30A0130F40040
:100AE4007408F606F701F8017008710403197B2DE8
:100AF4007C2DB32DF501F50A8A2D01300310F00D7C
:100B0400F10DFF3E031D802D0130F4007408F5073C
:100B1400F11F8D2D8E2D7F2D01300310F70DF80D53
:100B2400FF3E031D8F2D71087302031D9B2D70085A
:100B34007202031C9E2D9F2DA62D7008F2027108CF
:100B4400031CF303F302771401300310F10CF00CCF
:100B5400FF3E031DA72D0130F502031DB22DB32D59
:100B64008E2D76080319B72DB82DBD2DF709F80978
:100B7400F70A0319F80A7808F1007708F00008006A
:100B84000230F4000430F300BA30F200F20BC82D46
:100B9400F30BC82DF40BC82D00000A128A1111247E
:100BA4000A128A11D0300A128A114A240A128A11AE
:100BB40019300A128A113A240A128A1107300A12C9
:100BC4008A113A240A128A110A128A11EA230A1291
:100BD4008A11D0300A128A114A240A128A116B30FF
:100BE4000A128A113A240A128A1101300A128A114D
:100BF4003A240A128A110A128A11EA230A128A1161
:100C0400D0300A128A114A240A128A111A300A129E
:100C14008A113A240A128A1100300A128A113A24DB
:100C24000A128A110A128A11EA230A128A11D0308E
:100C34000A128A114A240A128A111C300A128A11D1
:100C44003A240A128A1100300A128A113A240A122A
:100C54008A110A128A11EA230A128A11D0300A125E
:100C64008A114A240A128A111B300A128A113A2460
:100C74000A128A1118300A128A113A240A128A11A5
:100C84000A128A11EA230A128A11D0300A128A112E
:100C94004A240A128A1138300A128A113A240A1292
:100CA4008A1101300A128A113A240A128A110A128C
:100CB4008A11EA230A128A110800D0300A128A1112
:100CC4004A240A128A113B300A128A113A240A125F
:100CD4008A110A128A11EA230A128A11D1300A12DD
:100CE4008A114A240A128A1100300A128A115A24DB
:100CF4000A128A1100300A128A115A240A128A111D
:100D040000300A128A115A240A128A118312031318
:100D1400AD00AE0100300A128A115A240A128A1157
:100D240083120313AF00B0012F08B000AF012D08E8
:100D34002F04E5002E083004E60000300A128A1160
:100D44005A240A128A1100300A128A115A240A12E9
:100D54008A1100300A128A115A240A128A110030A8
:100D64000A128A115A240A128A1100300A128A11AC
:100D74005A240A128A1100300A128A115A240A12B9
:100D84008A1100300A128A115A240A128A11003078
:100D94000A128A115A240A128A1100300A128A117C
:100DA4005A240A128A1101300A128A115A240A1288
:100DB4008A110A128A11EA230A128A118030F00079
:100DC4000030F100831203136508003EF200660848
:100DD4000318013E403EF3000A128A115B250A12F1
:100DE4008A1170088312031386000B30AD002D089E
:100DF400A0006608A2006508A10031300A128A1119
:100E040014270A128A11831203130608AD00AE01D7
:100E14002D08F1002E08F2000A128A11AE240A12DB
:100E24008A11080083120313AB002130A3002308A6
:100E3400A600E52F25302C060319212F222F2E2F53
:100E44002C08A3002B08840023088313800001309E
:100E5400A3002308AB07E52FA7010130A007FF304B
:100E6400200784000A128A1103200A128A11AC0096
:100E7400A300A4012408003A0319412FE52F2308F5
:100E8400003A0319F72F643A03194C2F0D3A03194A
:100E94004C2FE52F2608840083130008A900840A38
:100EA4000008AA000230A3002308A607AA1F5B2F8C
:100EB4005C2F652F0330A3002308A704A909AA09FE
:100EC400A90A0319AA0AAC01AC0A2C08A300230737
:100ED400013E84000A128A1103200A128A11A40016
:100EE4000A128A1103200A128A11A50025082A026F
:100EF400031D7E2F240829020318812F822F832F9C
:100F04008D2F0130A3002308AC0705302C06031DE8
:100F14008C2F8D2F672F270803390319922F932FB6
:100F24009E2F2D30A3002B088400230883138000F8
:100F34000130A3002308AB072C08A3002308A80052
:100F4400DC2F0A30F8000030F9002808A30023073A
:100F5400013E84000A128A1103200A128A11F00049
:100F64000A128A1103200A128A11F1002A08F300D6
:100F74002908F2000A128A1117250A128A11710827
:100F8400FB007008FA000A128A11DD240A128A1181
:100F94007808303E83120313A4002408AC002C0804
:100FA400A3002B0884002308831380000130A300CE
:100FB4002308AB07FF30A3002308A807280A031D52
:100FC400E42FE52FA32F0130A007FF302007840072
:100FD4000A128A1103200A128A11A3002308AC0002
:100FE4002C08031DF62FF72F1C2F2B0884008313C6
:0C0FF4008001080083010A128A11812C80
:04400E00D42CFF3E71
:00000001FF
