:020000040000FA
:100000000A128A11FC2F00308A000408840A820731
:100010000034013400340A34003464340034E834E9
:1000200003341034273420344734783420343D34BA
:1000300020342534643420342034203420340034F7
:1000400020344134793420343D3420342534643430
:1000500020342034203420340034203447347934A0
:1000600020343D342034253464342034203420348A
:1000700020340034203441347A3420343D34203468
:100080002534643420342034203420340034413486
:10009000783420343D342034253464342034203402
:1000A000203420340034203447347A3420343D3432
:1000B0002034253464340D340A340034203454346C
:1000C00020343D342034253464342034203400344A
:100640000A128A1154230A128A11831603131115F0
:1006500008008316031391121116111A302B312B37
:100660002D2B08008316031391161116111A392B1E
:100670003A2B362B0800F00083160313981C412BED
:10068000422B3C2B7008831203139900080028307A
:1006900083120313940083160313910194012730EE
:1006A0009300871507160800831603131419592B96
:1006B0005A2B542B11081F39031D5F2B602B542B11
:1006C000080083160313181533309900181283128B
:1006D0000313981783160313071787179816080034
:1006E000F0000A128A1154230A128A117008831228
:1006F000031393008C1D7D2B7E2B7A2B8C1108000D
:10070000F1000A128A1154230A128A118316031364
:10071000111471080A128A1170230A128A11080032
:10072000F400F201F301A52B72087407F1007108BF
:10073000840000080A128A113B230A128A11013030
:10074000F2070318F30A0030F30772087407F10088
:100750007108840083130008031DAF2BB02B942B6A
:100760000800F100831603139115141CB82BB92B44
:10077000B52B831203131308F0007008F200710800
:10078000031DC32BC42BCA2B0A128A1129230A1258
:100790008A11CF2B0A128A1132230A128A1183126C
:1007A00003138C1DD42BD52BCF2B8C117208080072
:1007B0000A128A1161230A128A118316031308117F
:1007C00086018316031789010A128A11E5240A1289
:1007D0008A1104308312031388060A128A116926CB
:1007E0000A128A11823083120313E800DD30E70019
:1007F000E70BF82BE80BF82BE92B0A128A110028DB
:10080000780879040319052C062C352CFD01FD0A06
:10081000142C01300310F80DF90DFF3E031D0A2CB6
:100820000130FC007C08FD07F91F172C182C092C3F
:1008300079087B02031D1E2C78087A02031C212CE8
:10084000222C282C7808FA027908031CFB03FB02EF
:1008500001300310F90CF80CFF3E031D292C013068
:10086000FD02031D342C352C182C7B08F9007A0866
:10087000F8000800F501F601700871040319412C15
:10088000422C792CF701F70A502C01300310F00D9F
:10089000F10DFF3E031D462C0130F4007408F707EC
:1008A000F11F532C542C452C01300310F50DF60D7F
:1008B000FF3E031D552C71087302031D612C700847
:1008C0007202031C642C652C6C2C7008F2027108F7
:1008D000031CF303F302751401300310F10CF00C48
:1008E000FF3E031D6D2C0130F702031D782C792C7F
:1008F000542C7608F1007508F0000800F601F11F8D
:10090000822C832C8A2CF009F109F00A0319F10AD0
:10091000F601F60AF31F8D2C8E2C972CF209F309A1
:10092000F20A0319F30A0130F4007408F606F7011D
:10093000F8017008710403199E2C9F2CD62CF50128
:10094000F50AAD2C01300310F00DF10DFF3E031D33
:10095000A32C0130F4007408F507F11FB02CB12C62
:10096000A22C01300310F70DF80DFF3E031DB22C31
:1009700071087302031DBE2C70087202031CC12C87
:10098000C22CC92C7008F2027108031CF303F30295
:10099000771401300310F10CF00CFF3E031DCA2C3C
:1009A0000130F502031DD52CD62CB12C7608031985
:1009B000DA2CDB2CE02CF709F809F70A0319F80AFE
:1009C0007808F1007708F00008000330F4000830E0
:1009D000F3007730F200F20BEB2CF30BEB2CF40B63
:1009E000EB2C0A128A1147230A128A11D0300A12FC
:1009F0008A1180230A128A1119300A128A1170236F
:100A00000A128A1107300A128A1170230A128A11F7
:100A10000A128A1120230A128A11D0300A128A116E
:100A200080230A128A116B300A128A1170230A126B
:100A30008A1101300A128A1170230A128A110A12CD
:100A40008A1120230A128A11D0300A128A118023B7
:100A50000A128A111A300A128A1170230A128A1194
:100A600000300A128A1170230A128A110A128A119E
:100A700020230A128A11D0300A128A1180230A1206
:100A80008A111C300A128A1170230A128A1100304E
:100A90000A128A1170230A128A110A128A1120235B
:100AA0000A128A11D0300A128A1180230A128A117E
:100AB0001B300A128A1170230A128A1118300A1286
:100AC0008A1170230A128A110A128A1120230A122B
:100AD0008A11D0300A128A1180230A128A11383002
:100AE0000A128A1170230A128A1101300A128A111D
:100AF00070230A128A110A128A1120230A128A11FB
:100B0000080083120313AB002130A3002308A600C2
:100B1000522E25302C0603198E2D8F2D9B2D2C083F
:100B2000A3002B0884002308831380000130A30056
:100B30002308AB07522EA7010130A007FF30200782
:100B400084000A128A1103200A128A11AC00A30041
:100B5000A4012408003A0319AE2D522E2308003AAE
:100B60000319642E643A0319B92D0D3A0319B92DEE
:100B7000522E2608840083130008A900840A000866
:100B8000AA000230A3002308A607AA1FC82DC92D5A
:100B9000D22D0330A3002308A704A909AA09A90A92
:100BA0000319AA0AAC01AC0A2C08A3002307013ED2
:100BB00084000A128A1103200A128A11A4000A1260
:100BC0008A1103200A128A11A50025082A02031D92
:100BD000EB2D240829020318EE2DEF2DF02DFA2D10
:100BE0000130A3002308AC0705302C06031DF92DA6
:100BF000FA2DD42D270803390319FF2D002E0B2EB3
:100C00002D30A3002B0884002308831380000130BB
:100C1000A3002308AB072C08A3002308A800492E33
:100C20000A30F8000030F9002808A3002307013E2D
:100C300084000A128A1103200A128A11F0000A1293
:100C40008A1103200A128A11F1002A08F3002908E8
:100C5000F2000A128A113A240A128A117108FB0062
:100C60007008FA000A128A1100240A128A11780800
:100C7000303E83120313A4002408AC002C08A30008
:100C80002B0884002308831380000130A30023086D
:100C9000AB07FF30A3002308A807280A031D512E25
:100CA000522E102E0130A007FF30200784000A12B8
:100CB0008A1103200A128A11A3002308AC002C0811
:100CC000031D632E642E892D2B088400831380015D
:100CD0000800D0300A128A1180230A128A113B3090
:100CE0000A128A1170230A128A110A128A11202309
:100CF0000A128A11D1300A128A1180230A128A112B
:100D000000300A128A11B1230A128A1183120313C6
:100D1000AD00AE0100300A128A11B1230A128A1105
:100D200083120313AF00B0012F08B000AF012D08EC
:100D30002F04D9002E083004DA0000300A128A117C
:100D4000B1230A128A1183120313AD00AE010030E1
:100D50000A128A11B1230A128A1183120313AF00F7
:100D6000B0012F08B000AF012D082F04E5002E08B8
:100D70003004E60000300A128A11B1230A128A11E7
:100D800083120313AD00AE0100300A128A11B123A1
:100D90000A128A1183120313AF00B0012F08B000AA
:100DA000AF012D082F04DB002E083004DC000030DA
:100DB0000A128A11B1230A128A1183120313AD0099
:100DC000AE0100300A128A11B1230A128A1183126D
:100DD0000313AF00B0012F08B000AF012D082F049E
:100DE000DD002E083004DE0000300A128A11B12323
:100DF0000A128A1183120313AD00AE0100300A12E9
:100E00008A11B1230A128A1183120313AF00B001B1
:100E10002F08B000AF012D082F04DF002E0830048A
:100E2000E00000300A128A11B1230A128A118312DB
:100E30000313AD00AE0100300A128A11B1230A1269
:100E40008A1183120313AF00B0012F08B000AF0165
:100E50002D082F04E1002E083004E20001300A12B0
:100E60008A11B1230A128A1183120313AD00AE0155
:100E700000300A128A11B1230A128A118312031355
:100E8000AF00B0012F08B000AF012D082F04E30020
:100E90002E083004E4000A128A1120230A128A1153
:100EA0004030F0000030F100831203136608F300B5
:100EB0006508F2000A128A117E240A128A1170084B
:100EC0008312031386003F30AD002D08A0005A089E
:100ED000A2005908A10031300A128A1181250A1294
:100EE0008A1131300A128A1190230A128A1118309D
:100EF00083120313AD002D08A0006608A200650848
:100F0000A10031300A128A1181250A128A1131306A
:100F10000A128A1190230A128A11323083120313A3
:100F2000AD002D08A0005C08A2005B08A1003130D4
:100F30000A128A1181250A128A1131300A128A1185
:100F400090230A128A11563083120313AD002D0824
:100F5000A0005E08A2005D08A10031300A128A11CB
:100F600081250A128A1131300A128A1190230A123D
:100F70008A110B3083120313AD002D08A000600806
:100F8000A2005F08A10031300A128A1181250A12DD
:100F90008A1131300A128A1190230A128A112530DF
:100FA00083120313AD002D08A0006208A20061089F
:100FB000A10031300A128A1181250A128A113130BA
:100FC0000A128A1190230A128A114B3083120313DA
:100FD000AD002D08A0006408A2006308A100313014
:100FE0000A128A1181250A128A1131300A128A11D5
:100FF00090230A128A11080083010A128A11D82B41
:04400E00D22CFF3E73
:00000001FF
