:020000040000FA
:100000000A128A11FC2F00308A000408840A820731
:100010000034013400340A34003464340034E834E9
:1000200003341034273420344734783420343D34BA
:1000300020342534643420342034203420340034F7
:1000400020344134793420343D3420342534643430
:1000500020342034203420340034203447347934A0
:1000600020343D342034253464342034203420348A
:1000700020340034203441347A3420343D34203468
:100080002534643420342034203420340034413486
:10009000783420343D342034253464342034203402
:1000A000203420340034203447347A3420343D3432
:1000B0002034253464340D340A340034203454346C
:1000C00020343D342034253464342034203400344A
:10062E000A128A114B230A128A118316031311150B
:10063E0008008316031391121116111A272B282B5B
:10064E00242B08008316031391161116111A302B42
:10065E00312B2D2B0800F00083160313981C382B1A
:10066E00392B332B7008831203139900080028309E
:10067E0083120313940083160313910194019F3088
:10068E009300871507160800831603131419502BB1
:10069E00512B4B2B11081F39031D562B572B4B2B50
:1006AE00080083160313181533309900181283129D
:1006BE000313981783160313071787179816080046
:1006CE00F0000A128A114B230A128A117008831243
:1006DE00031393008C1D742B752B712B8C1108003A
:1006EE00F1000A128A114B230A128A118316031380
:1006FE00111471080A128A1167230A128A1108004E
:10070E00F400F201F3019C2B72087407F1007108DA
:10071E00840000080A128A1132230A128A1101304B
:10072E00F2070318F30A0030F30772087407F1009A
:10073E007108840083130008031DA62BA72B8B2B97
:10074E000800F100831603139115141CAF2BB02B68
:10075E00AC2B831203131308F0007008F20071081B
:10076E00031DBA2BBB2BC12B0A128A1120230A128E
:10077E008A11C62B0A128A1129230A128A11831290
:10078E0003138C1DCB2BCC2BC62B8C11720808009F
:10079E000A128A1158230A128A118316031308119A
:1007AE0086018316031789010A128A11E1240A129F
:1007BE008A1104308312031388060A128A116526E1
:1007CE000A128A11023083120313E9000430E80082
:1007DE00B930E700E70BF12BE80BF12BE90BF12B0E
:1007EE00F82BE02B0A128A110028780879040319D5
:1007FE00012C022C312CFD01FD0A102C01300310AE
:10080E00F80DF90DFF3E031D062C0130FC007C088F
:10081E00FD07F91F132C142C052C79087B02031DE0
:10082E001A2C78087A02031C1D2C1E2C242C7808F6
:10083E00FA027908031CFB03FB0201300310F90CCA
:10084E00F80CFF3E031D252C0130FD02031D302C3C
:10085E00312C142C7B08F9007A08F8000800F501F9
:10086E00F6017008710403193D2C3E2C752CF7010E
:10087E00F70A4C2C01300310F00DF10DFF3E031D55
:10088E00422C0130F4007408F707F11F4F2C502C46
:10089E00412C01300310F50DF60DFF3E031D512CBA
:1008AE0071087302031D5D2C70087202031C602C0C
:1008BE00612C682C7008F2027108031CF303F3021A
:1008CE00751401300310F10CF00CFF3E031D692C62
:1008DE000130F702031D742C752C502C7608F10094
:1008EE007508F0000800F601F11F7E2C7F2C862C77
:1008FE00F009F109F00A0319F10AF601F60AF31FDD
:10090E00892C8A2C932CF209F309F20A0319F30AA3
:10091E000130F4007408F606F701F801700871044E
:10092E0003199A2C9B2CD22CF501F50AA92C013017
:10093E000310F00DF10DFF3E031D9F2C0130F4004E
:10094E007408F507F11FAC2CAD2C9E2C0130031052
:10095E00F70DF80DFF3E031DAE2C71087302031D3B
:10096E00BA2C70087202031CBD2CBE2CC52C70084C
:10097E00F2027108031CF303F30277140130031023
:10098E00F10CF00CFF3E031DC62C0130F502031DC9
:10099E00D12CD22CAD2C76080319D62CD72CDC2CCE
:1009AE00F709F809F70A0319F80A7808F100770829
:1009BE00F00008000330F4000830F3007730F20046
:1009CE00F20BE72CF30BE72CF40BE72C0A128A112F
:1009DE003E230A128A11D0300A128A1177230A1284
:1009EE008A1119300A128A1167230A128A110730E6
:1009FE000A128A1167230A128A110A128A11172300
:100A0E000A128A11D0300A128A1177230A128A1119
:100A1E006B300A128A1167230A128A1101300A12E8
:100A2E008A1167230A128A110A128A1117230A12CF
:100A3E008A11D0300A128A1177230A128A111A30BB
:100A4E000A128A1167230A128A1100300A128A11B9
:100A5E0067230A128A110A128A1117230A128A119F
:100A6E00D0300A128A1177230A128A111C300A1208
:100A7E008A1167230A128A1100300A128A1167231B
:100A8E000A128A110A128A1117230A128A11D030F9
:100A9E000A128A1177230A128A111B300A128A113E
:100AAE0067230A128A1118300A128A1167230A1252
:100ABE008A110A128A1117230A128A11D0300A12C9
:100ACE008A1177230A128A1138300A128A11672383
:100ADE000A128A1101300A128A1167230A128A1128
:100AEE000A128A1117230A128A110800831203139D
:100AFE00AB002130A3002308A6004E2E25302C0675
:100B0E0003198A2D8B2D972D2C08A3002B088400FA
:100B1E002308831380000130A3002308AB074E2E59
:100B2E00A7010130A007FF30200784000A128A11A6
:100B3E0003200A128A11AC00A300A4012408003A73
:100B4E000319AA2D4E2E2308003A0319602E643A7B
:100B5E000319B52D0D3A0319B52D4E2E2608840016
:100B6E0083130008A900840A0008AA000230A3001B
:100B7E002308A607AA1FC42DC52DCE2D0330A30012
:100B8E002308A704A909AA09A90A0319AA0AAC01EC
:100B9E00AC0A2C08A3002307013E84000A128A1116
:100BAE0003200A128A11A4000A128A1103200A12C3
:100BBE008A11A50025082A02031DE72D2408290203
:100BCE000318EA2DEB2DEC2DF62D0130A300230892
:100BDE00AC0705302C06031DF52DF62DD02D27085C
:100BEE0003390319FB2DFC2D072E2D30A3002B08E6
:100BFE0084002308831380000130A3002308AB0771
:100C0E002C08A3002308A800452E0A30F800003057
:100C1E00F9002808A3002307013E84000A128A1156
:100C2E0003200A128A11F0000A128A1103200A12F6
:100C3E008A11F1002A08F3002908F2000A128A111B
:100C4E0036240A128A117108FB007008FA000A1283
:100C5E008A11FC230A128A117808303E831203137C
:100C6E00A4002408AC002C08A3002B088400230841
:100C7E00831380000130A3002308AB07FF30A300CD
:100C8E002308A807280A031D4D2E4E2E0C2E0130C8
:100C9E00A007FF30200784000A128A1103200A12CF
:100CAE008A11A3002308AC002C08031D5F2E602EB2
:100CBE00852D2B088400831380010800D0300A1282
:100CCE008A1177230A128A113B300A128A1167237E
:100CDE000A128A110A128A1117230A128A11D130A6
:100CEE000A128A1177230A128A1100300A128A1107
:100CFE00A8230A128A1183120313AD00AE0100302D
:100D0E000A128A11A8230A128A1183120313AF0042
:100D1E00B0012F08B000AF012D082F04D9002E0806
:100D2E003004DA0000300A128A11A8230A128A113E
:100D3E0083120313AD00AE0100300A128A11A823EC
:100D4E000A128A1183120313AF00B0012F08B000EC
:100D5E00AF012D082F04E5002E083004E600003008
:100D6E000A128A11A8230A128A1183120313AD00E4
:100D7E00AE0100300A128A11A8230A128A118312B8
:100D8E000313AF00B0012F08B000AF012D082F04E0
:100D9E00DB002E083004DC0000300A128A11A82372
:100DAE000A128A1183120313AD00AE0100300A122B
:100DBE008A11A8230A128A1183120313AF00B001FD
:100DCE002F08B000AF012D082F04DD002E083004CF
:100DDE00DE0000300A128A11A8230A128A11831229
:100DEE000313AD00AE0100300A128A11A8230A12B5
:100DFE008A1183120313AF00B0012F08B000AF01A8
:100E0E002D082F04DF002E083004E00000300A12F7
:100E1E008A11A8230A128A1183120313AD00AE01A0
:100E2E0000300A128A11A8230A128A1183120313A0
:100E3E00AF00B0012F08B000AF012D082F04E10064
:100E4E002E083004E20001300A128A11A8230A1279
:100E5E008A1183120313AD00AE0100300A128A11FB
:100E6E00A8230A128A1183120313AF00B0012F08B0
:100E7E00B000AF012D082F04E3002E083004E4006B
:100E8E000A128A1117230A128A118030F0000030DC
:100E9E00F100831203136508003EF2006608031882
:100EAE00013E403EF3000A128A117A240A128A1178
:100EBE0070088312031386003F30AD002D08A0008A
:100ECE005A08A2005908A10031300A128A117D2554
:100EDE000A128A1131300A128A1187230A128A11D4
:100EEE00183083120313AD002D08A0006608A2006F
:100EFE006508A10031300A128A117D250A128A1165
:100F0E0031300A128A1187230A128A113230831263
:100F1E000313AD002D08A0005C08A2005B08A10021
:100F2E0031300A128A117D250A128A1131300A12C5
:100F3E008A1187230A128A11563083120313AD00C9
:100F4E002D08A0005E08A2005D08A10031300A1233
:100F5E008A117D250A128A1131300A128A118723CD
:100F6E000A128A110B3083120313AD002D08A00054
:100F7E006008A2005F08A10031300A128A117D2597
:100F8E000A128A1131300A128A1187230A128A1123
:100F9E00253083120313AD002D08A0006208A200B5
:100FAE006108A10031300A128A117D250A128A11B8
:100FBE0031300A128A1187230A128A114B3083129A
:100FCE000313AD002D08A0006408A2006308A10061
:100FDE0031300A128A117D250A128A1131300A1215
:100FEE008A1187230A128A11080083010A128A11B4
:020FFE00CF2BF7
:04400E00D22CFF3E73
:00000001FF
