:020000040000FA
:060000000A128A11F92F1B
:100E120083160313890183120313890183160317AF
:100E22008801890107308316031385008312031397
:100E32008501831603138701831203138701831627
:100E42000313880183120313880183160313860197
:100E520083120313860108000A128A1109270A1253
:100E62008A11831203130518372F382F322F82303D
:100E7200F400DD30F300F30B3C2FF40B3C2F412F39
:100E820083120313051C462F472F322F0A128A1191
:100E920055270A128A110A128A1190270A128A11F8
:100EA200322F0A128A110028831203138701880144
:100EB200860109140630F2001330F100AD30F00063
:100EC200F00B612FF10B612FF20B612F682F831250
:100ED2000313091089140630F2001330F100AD300B
:100EE200F000F00B722FF10B722FF20B722F792F91
:100EF20083120313891009150630F2001330F10032
:100F0200AD30F000F00B832FF10B832FF20B832F08
:100F12008A2F831203130911F701F70A0800F32F2E
:100F2200831203138518962F972FC32F8230F10057
:100F3200DD30F000F00B9B2FF10B9B2FA02F8312C3
:100F42000313851CA52FA62FC32F0708031DAA2F45
:100F5200AB2FB02FF601F60A01308700BD2F07082C
:100F62000319B42FB52FBD2F7608F0007007F100DA
:100F72007108F60076088700871FC02FC12FC32F84
:100F8200F70106140519C62FC72FF32F8230F1007F
:100F9200DD30F000F00BCB2FF10BCB2FD02F8312D3
:100FA2000313051DD52FD62FF32F0808031DDA2FA3
:100FB200DB2FE02FF501F50A01308800ED2F08083C
:100FC2000319E42FE52FED2F7508F0007007F100EB
:100FD2007108F50075088800881FF02FF12F902FF7
:100FE200F701861477030319F72FF82F912F0800C2
:0E0FF200F501F601F70183010A128A112D2F75
:04400E00D120FF3F7F
:00000001FF
