:020000040000FA
:060000000A128A11F72F1D
:100F000083160313890183120313890183160317C0
:100F100088018901073083160313850083120313A8
:100F20008501831603138701831203138701831638
:100F30000313880183120313880108000A128A111F
:100F400080270A128A11831203130518A82FA92FCC
:100F5000A32F8230F900DD30F800F80BAD2FF90B2C
:100F6000AD2FB22F83120313051CB72FB82FA32F59
:100F70000A128A11C1270A128A11A32F0A128A1192
:100F800000288312031309140630F7001330F6000B
:100F9000AD30F500F50BCA2FF60BCA2FF70BCA2F91
:100FA000D12F83120313091089140630F700133070
:100FB000F600AD30F500F50BDB2FF60BDB2FF70B52
:100FC000DB2FE22F83120313891009150630F70077
:100FD0001330F600AD30F500F50BEC2FF60BEC2FCF
:100FE000F70BEC2FF32F8312031309110800F00104
:100FF000F101F201F301F40183010A128A119E2F1B
:04400E00D120FF3F7F
:00000001FF
